:020000020000FC
:100000000C949E2218951895189518951895189582
:100010001895189518951895189518951895189578
:100020001895189518951895189518950C94D5034A
:10003000189518950C9414221895189518951895DC
:100040001895189518951895189518951895189548
:1000500018951895189518950001020304050607D0
:100060000000311262245336C448F55AA66C977EBC
:100070008891B983EAB5DBA74CD97DCB2EFD1FEF64
:1000800000002110422063308440A550C660E77014
:10009000088129914AA16BB18CC1ADD1CEE1EFF1BC
:1000A000D007D007D007D007D007D007D007D00798
:1000B000D8DDE2E7ECF1F6FB00050A0F14191E2368
:1000C000282D32373C41464B50555A000000000065
:1000D0000000000000000000000000000000000020
:1000E000000000000000FBFCFCFDFDFDFEFEFEFE2E
:1000F000FEFFFF00000000000101010101020202F9
:1001000002FBFBFCFDFDFDFDFD00FDFEFEFF000012
:10011000000000010102020202020202FCFDFDFEDB
:10012000FEFEFEFEFEFE00000000000000000101D9
:100130000101010202020204040404040303030295
:10014000020101000000000000FFFEFEFEFEFEFEB8
:10015000FEFE04040404040403030202010100007F
:100160000000000000FFFFFFFFFFFFFFFF02020291
:10017000020200000000000000000000000000FE7D
:10018000FEFEFEFDFDFDFDFD02020202020000007A
:1001900000000000000000000000FEFEFEFEFDFD6D
:1001A000FDFDFDB000B200C000C200280029002CF7
:1001B000002D00FFFFFFFF000001070100010708FD
:1001C00000010709000107100001001100010018DB
:1001D000000100190001002000010721000107288B
:1001E0000001072900010724000107250001072C51
:1001F0000001072D0001070270010703700107D0FD
:10020000000100D1000100D8000100D90001005018
:1002100000020752000207600002076200020700A6
:10022000800100018001000480010005800100457B
:1002300080010086800207888002078E8002079076
:10024000800207BC8002077680020728800107C66B
:1002500080010718800107198001071C8001071D14
:1002600080010700F00AFF01F01EFF02F001070302
:10027000F0010717F00AFF18F0020719F014FF3613
:10028000F0020830F0020832F0020837F0020831BC
:10029000F0020833F0020835F0020834F002085288
:0F02A000F3010753F3010740F00207FFFFFFFFD1
:1002B0000000F0081300D6061A0726074D077A0734
:1002C0008907A207B907C807E107F8070708200848
:1002D000370846085F0876088908DC080001001D19
:1002E000160D00E711161269129B121D16CD12236E
:1002F000131D161D167613DC134214501500F00062
:1003000001B017E317011518014818016718147692
:100310001801A91801D718170A19010A19010A1991
:10032000010A19010A19010A19010A19010A190910
:100330005719FE0310911902A31701CB19FB0000F6
:1003400001291A5D1A01BF1A078D1A01EF1A072138
:100350001B01841B07E71B014A1C07591D018F1D48
:1003600003311E01671E03C51D01FB1D039D1E01F8
:10037000D31E23091F02091F0E091F02091F6EAD9C
:100380001C01D81C07031D012E1DFE7F27951F0190
:10039000A01F03AB1F01B61F13AD2001B82003C37C
:1003A00020011F1A0BA2201DC11F11CC1F207A2073
:1003B00010E91F0206200623200240202C5D200A9F
:1003C0009720FB0000E006B900E000935B0300917A
:1003D0005B030F70006407B900E808B906EC06B9C2
:1003E0000895392F282F0F70006407B906EC06B95D
:1003F00080E090E0369B07C00196893E03E09007BD
:10040000C8F300E007C004B115B1ECE5F3E00083E8
:10041000118301E0822F932F0895E8E5F0E0009129
:10042000AF0010E0E00FF11F049110E0F801E25A74
:10043000FC4F0081005019F00A95F1F0C8C001E0AE
:10044000E8E5F0E02091AF0030E0E20FF31F2491E7
:1004500030E0F901E25AFC4F008300E0E8E5F0E00B
:100460002091AF0030E0E20FF31F249130E0F9015A
:10047000EA59FC4F00830895E8E5F0E00091AF00F1
:1004800010E0E00FF11F049110E0F801EA59FC4F71
:100490000081063008F043C0E8E5F0E00091AF00CD
:1004A00010E0E00FF11F04919CDF0023D1F0ECE598
:1004B000F3E020813181E8E5F0E00091AF0010E049
:1004C000E00FF11F049110E0F801EA59FC4F0081A0
:1004D00010E0000F111FF801E259FC4F2083318317
:1004E0000EC000E0E8E5F0E02091AF0030E0E20F60
:1004F000F31F249130E0F901E25AFC4F0083E8E554
:10050000F0E00091AF0010E0E00FF11F049110E067
:10051000F801EA59FC4F008103950083089500E03B
:1005200010E044E022E00CC0622F70E0660F771FFD
:10053000FB01E259FC4F60817181060F171F239563
:10054000263078F4622F70E0660F771FFB01E259C6
:10055000FC4F60817181603034E0730728F34A9565
:10056000EECF50E00E94CE22E8E5F0E02091AF000F
:1005700030E0E20FF31F249130E0220F331FF90126
:10058000E959FE4F0083118300E0E8E5F0E0209197
:10059000AF0030E0E20FF31F249130E0F901E25A9E
:1005A000FC4F0083E8E5F0E00091AF0010E0E00FC1
:1005B000F11F04910E94F608EFEAF0E00081039534
:1005C0000083083090F000E00093AF00089500E051
:1005D000E8E5F0E02091AF0030E0E20FF31F249156
:1005E00030E0F901E25AFC4F008308952697969A6D
:1005F000959A9798402F50E0542F40E0550F550F93
:10060000550F550F420F531F00E006C0959896985E
:10061000440F551F969A0395003128F4152F17FFA4
:10062000F5CF959AF4CF969A959A979A0395039554
:10063000269608959A93F82F802F969A959A9798D0
:10064000A90160E070E07695762F7795652F679524
:10065000542F579540E047958A019B0141E752E0AE
:1006600060E070E00E942723A801B90190E0982F74
:1006700080E0990F990F990F990F2FEF33E0242302
:100680003523220F331F220F331F280F391F00E09D
:1006900006C095989698220F331F969A03950031BD
:1006A00028F4132F17FFF5CF959AF4CF969A959AC1
:1006B000979A039503958F2F99910895229720E09B
:1006C00030E008E093DF20E030E009E08FDF2296A1
:1006D0000895979A969A959AF1DF089500911401DA
:1006E000002311F4939801C0939A009117010023FD
:1006F00011F4AA9801C0AA9A00911501002311F4DF
:10070000929801C0929A00911801002311F4AB98BD
:1007100001C0AB9A0E94E40508959A938A93E0E0A1
:10072000F0E009C0019601970196883522E0920712
:10073000C8F3A8953196E017F10718F480E090E02F
:10074000F4CF89919991089508E101BD00E001BDC0
:100750000895A89508E101BD0EE001BD089504E0EB
:1007600003BF01EF02BF01E009BF0895EDDF00E024
:100770000BBB00E00ABB00E008BB0FE707BB00E0D3
:1007800005BB0FEF04BB00E002BB0EEF01BB00E0B6
:1007900005BF0E94F6210E94980D0E94E2010E946E
:1007A0006903DDDFD6DF78940895FA93EA931A930C
:1007B0000A931FB701EF02BFE0EBF0E00081039561
:1007C00000830091B000093190F000E00093B00088
:1007D000E1EBF0E0008103950083EFEBF4E00081B2
:1007E00003950083093218F000E00093BE041FBF98
:1007F00009911991E991F99118958A93B7DF00E071
:100800000093490100E000934A0100E000934B018E
:1008100000E000934C0100E000934D0180E006C031
:1008200020E030E0082F0E941A0383958830C0F33F
:100830000E946E0389910895F89400E213E06DDF41
:100840000EEE0093B30004E312E1E4EBF0E000836A
:100850001183D3DF0EEE0093B3000DC00E940D0292
:100860000E949D2100917A03013029F40E94E40541
:1008700000E000937A030091B100063088F3A89558
:1008800000E00093B1000091B300023511F3009134
:10089000B3000934F1F20091B300023421F0009169
:1008A000B3000535D9F6FFCF9A938A93A8010024A7
:1008B000112400E02AC0B001672F70E0362F10E04D
:1008C000FA01E00FF11F60816327E0E6F0E0862F78
:1008D00082958F7090E0880F991FE80FF91F25907F
:1008E00034903197E0E8F0E070E06F707070660F60
:1008F000771FE60FF71F6591749131976225732575
:10090000102C00240626172603950217A0F280015A
:10091000899199910895392F482F00E001C00395DE
:100920000B31F0F42091460110E0F801E558FC4F3E
:10093000108121176CF010914601802F90E00196F4
:10094000FC01E558FC4F2081121714F4039509C0EF
:10095000109195032091460112170CF70AE101C08E
:1009600000E0842F932F0895D6DF1091A904019FF2
:1009700000911E0110912001100F102C110C110874
:1009800004E0000E00E0101EF001E155FC4F208154
:10099000210F203220F0203810F42FE103C020383E
:1009A00008F020E0220F2F73AF9810E005C00395E8
:1009B0000530E8F3220F1395163098F4AC9800E058
:1009C00001C003950530E8F325FB16F4AD9A01C08C
:1009D000AD9800E001C003950530E8F3AC9A00E063
:1009E000E7CFAF9A10E001C013951431E8F3AC984B
:1009F000AF98AD9810E001C013951431E8F3089555
:100A00008ADF1091A904019F00911F01109121011B
:100A1000100F102C110C110805E0000E00E0101E44
:100A2000F001E155FC4F2081210F203220F02038C9
:100A300010F42FE103C0203808F020E0220F2F73BC
:100A4000C39810E005C003950530E8F3220F139515
:100A5000163098F4AC9800E001C003950530E8F337
:100A600025FB16F4AD9A01C0AD9800E001C00395D6
:100A70000530E8F3AC9A00E0E7CFC39A10E001C07C
:100A800013951431E8F3AC98C398AD9810E001C009
:100A900013951431E8F308953EDF1091A904019FE6
:100AA00000911A0110911C01100F102C110C11084B
:100AB00006E0000E00E0101EF001E155FC4F208121
:100AC000210F203220F0203810F42FE103C020380D
:100AD00008F020E0220F2F73AE9810E005C00395B8
:100AE0000530E8F3220F1395163098F4AC9800E027
:100AF00001C003950530E8F325FB16F4AD9A01C05B
:100B0000AD9800E001C003950530E8F3AC9A00E031
:100B1000E7CFAE9A10E001C013951431E8F3AC981A
:100B2000AE98AD9810E001C013951431E8F3089524
:100B3000F2DE1091A904019F00911B0110911D018B
:100B4000100F102C110C110807E0000E00E0101E11
:100B5000F001E155FC4F2081210F203220F0203898
:100B600010F42FE103C0203808F020E0220F2F738B
:100B7000C49810E005C003950530E8F3220F1395E3
:100B8000163098F4AC9800E001C003950530E8F306
:100B900025FB16F4AD9A01C0AD9800E001C00395A5
:100BA0000530E8F3AC9A00E0E7CFC49A10E001C04A
:100BB00013951431E8F3AC98C498AD9810E001C0D7
:100BC00013951431E8F308950E94CC2328970091DF
:100BD0005A01013009F4A9C000914901013009F41A
:100BE000A4C099DE1091A904019F602CBDDE08DF2E
:100BF00053DF9EDF00911601002369F40091190173
:100C0000013029F4D898C19AC098C29A04C0D89AE1
:100C1000C198C09AC2987724F301E155FC4F008136
:100C2000102F110F110B4AE050E00E94BE22280144
:100C3000062D10E00F5F1F4FF801E155FC4F0081BA
:100C4000102F110F110B4AE050E00E94BE22C80184
:100C5000062D10E00E5F1F4FF801E155FC4F00819B
:100C6000102F110F110B4AE050E00E94BE22D80154
:100C7000772403E0600E00E0701EF301E155FC4FA5
:100C80000081102F110F110B4AE050E00E94BE228C
:100C9000380100911401013051F4E4E1F1E02489BC
:100CA0003589240D351D01E00E941A0305C020E09E
:100CB00030E001E00E941A0300911501013051F467
:100CC000E4E1F1E026893789280F391F02E00E940C
:100CD0001A0305C020E030E002E00E941A030091F0
:100CE0001701013051F4E4E1F1E0228933892A0F40
:100CF0003B1F00E00E941A0305C020E030E000E046
:100D00000E941A0300911801013051F4E4E1F1E06E
:100D1000208D318D260D371D03E00E941A0305C07A
:100D200020E030E003E00E941A032896E8E00C94EB
:100D3000DB2310E0000F111FF801E959FE4F00817D
:100D4000118145E050E00E94BE2208950E94CC230C
:100D500000912201102F110F110B4AE050E00E9468
:100D6000BE22380100912301102F110F110B4AE010
:100D700050E00E94BE22280100912401102F110F83
:100D8000110B4AE050E00E94BE22D80100912501DB
:100D9000102F110F110B4AE050E00E94BE22C80133
:100DA00000915C01E0EBF2E00C94732300914601AA
:100DB000003524F001E000935C0115C2E4E1F1E0AC
:100DC00003A914A9E2E1F1E02081318102171307A0
:100DD00020F000E100935C0106C2E4E1F1E006A12D
:100DE00017A10615170524F004E000935C01FBC170
:100DF000E4E1F1E000A511A50415150524F007E0D4
:100E000000935C01F0C1E4E1F1E002A513A50A172B
:100E10001B0724F00AE000935C01E5C1E4E1F1E086
:100E200004A515A5081719070CF4DDC10DE0009302
:100E30005C01D9C100914601003524F002E0009325
:100E40005C01D1C100E000935C01CDC1009146017D
:100E50000035FCF003E000935C019398AA98929807
:100E6000AB9820E030E001E00E941A0320E030E07F
:100E700002E00E941A0320E030E000E00E941A0322
:100E800020E030E003E00E941A0301E000935A01E1
:100E9000AAC100E000935C01A6C1009146010C3399
:100EA0000CF0A1C100E000935C0100915A010130F7
:100EB00009F099C100E000935A0100911401002348
:100EC00011F4939801C0939A00911701002311F433
:100ED000AA9801C0AA9A00911501002311F49298D2
:100EE00001C0929A00911801002311F4AB987BC1C4
:100EF000AB9A79C1E4E1F1E006A117A10615170547
:100F000024F005E000935C016EC100E000935C01F9
:100F10006AC1E4E1F1E006A117A10615170574F016
:100F200006E000935C01939800E010E0EFE5F1E04B
:100F30000083118301E000934A0155C100E0009352
:100F40005C0151C1AFE5B1E0ED91FC913196FC93AC
:100F5000EE937F9708F447C100E000935C01009195
:100F60004A01013009F03FC100E000934A01939A21
:100F70003AC1E4E1F1E000A511A50415150524F03E
:100F800008E000935C012FC100E000935C012BC1DD
:100F9000E4E1F1E000A511A50415150574F009E0E0
:100FA00000935C01929800E010E0E1E6F1E000833C
:100FB000118301E000934B0116C100E000935C0136
:100FC00012C1A1E6B1E0ED91FC913196FC93EE9354
:100FD0007F9708F408C100E000935C0100914B0189
:100FE000013009F000C100E000934B01929AFBC070
:100FF000E4E1F1E002A513A50A171B0724F00BE0BA
:1010000000935C01F0C000E000935C01ECC0E4E1FF
:10101000F1E002A513A50A171B0774F00CE000937A
:101020005C01AA9800E010E0E3E6F1E000831183A0
:1010300001E000934C01D7C000E000935C01D3C0F5
:10104000A3E6B1E0ED91FC913196FC93EE937F978E
:1010500008F4C9C000E000935C0100914C0101302C
:1010600009F0C1C000E000934C01AA9ABCC0E4E1C1
:10107000F1E004A515A50817190724F00EE0009368
:101080005C01B1C000E000935C01ADC0E4E1F1E0BF
:1010900004A515A50817190774F00FE000935C016B
:1010A000AB9800E010E0E5E6F1E00083118301E099
:1010B00000934D0198C000E000935C0194C0A5E648
:1010C000B1E0ED91FC913196FC93EE937F9708F49B
:1010D0008AC000E000935C0100914D01013009F0ED
:1010E00082C000E000934D01AB9A7DC0E4E1F1E0E5
:1010F00003A914A9E2E1F1E020813181021713076D
:1011000020F001E100935C016EC000E000935C01FF
:101110006AC0E4E1F1E003A914A9E2E1F1E0208171
:1011200031810217130708F443C002E100935C0108
:1011300000E00093140100E00093150100E000932B
:10114000170100E0009318019398AA989298AB9821
:1011500020E030E001E00E941A0320E030E002E0ED
:101160000E941A0320E030E000E00E941A0320E011
:1011700030E003E00E941A0305B3046505BB20E0DC
:1011800030E005E00E941A0320E030E000E00E9419
:101190001A0320E030E004E00E941A0300E010E0AF
:1011A000EDE5F1E00083118301E0009349011BC0EC
:1011B00000E000935C0117C0ADE5B1E0ED91FC915A
:1011C0003196FC93EE937F9770F000E000935C0102
:1011D00000914901013039F400E00093490103C056
:1011E00000E000935C01E8E00C94DB230E94CC2338
:1011F0002297402E042D9DDDC801042D0A9509F487
:101200007AC30A9509F463C1025009F456C00A95DD
:1012100009F467C2025009F077C4A0E0B0E08C0185
:101220009D0148EE53E060E070E00E940B2340E037
:1012300054E060E070E00E944D23C801D9018C01A8
:10124000E8E5F1E0008311838C019D014AE050E064
:1012500060E070E00E944D23C801D90182539040A4
:10126000A040B04080934601EAE0F1E000811181A6
:101270004AE050E00E94E722E4E1F1E012A9100FF9
:1012800012AB009146011091AE00011709F43CC465
:1012900042DB0093AD030091AD031091AE03011743
:1012A00039F00091AD030093AE0301E000937A039F
:1012B000009146010093AE0027C4A0E0B0E08C018D
:1012C0009D0148EE53E060E070E00E940B2340E097
:1012D00054E060E070E00E944D23C801D9018C0108
:1012E000E4E1F1E002AF13AF0091B504013009F57C
:1012F00000E00093B504E4E1F1E002AD13ADE7E7EF
:10130000F1E00483158307E711E020E00BC030E033
:10131000F801E20FF31F408130E0F901ED55FD4F78
:1013200040832395283298F328E200E015E00E94DC
:1013300081110091B504023009F088C000E00093EB
:10134000B504E4E1F1E002AD13ADE7E7F1E0008BB5
:10135000118BE7E7F1E004811581E7E7F1E02089EF
:1013600031890217130731F0009177011091830141
:10137000011769F401E010E0E7E7F1E0008F118F59
:1013800000E010E0E7E7F1E000A311A349C00091FD
:101390007701102F110F110B20918301322F330F82
:1013A000330B021B130B212F220F220B322F48EE7F
:1013B00053E060E070E00E940B23E7E7F1E0448136
:1013C0005581E7E7F1E060897189461B570B60E0C2
:1013D00070E00E944D23E7E7F1E0008F118F6090ED
:1013E0008301762C770C7708E7E7F1E0008D118D0B
:1013F000212F220F220B322FE7E7F1E0408951899C
:1014000060E070E00E940B2348EE53E060E070E083
:101410000E944D23601A710AE7E7F1E060A271A211
:1014200007E711E020E00BC030E0F801E20FF31F06
:10143000408130E0F901ED55FD4F4083239528327E
:1014400098F328E200E015E00E948111E7E7F1E05F
:10145000008D118D212F220F220B322FAC01BD01E7
:101460000E940B2344E650E060E070E00E944D23B0
:10147000C801D901E7E7F1E000A111A14AE050E07D
:101480000E94BE22212F220F220B322F080F191F7C
:101490002A1F3B1FC801D901E4E1F1E086A397A30D
:1014A000E0E0F1E000811181E4E1F1E026A137A163
:1014B000200F311F26A337A3E4E1F1E006A117A115
:1014C0004AE050E00E94E722009342011DC3A0E0E1
:1014D000B0E08C019D0148EE53E060E070E00E94B6
:1014E0000B2340E054E060E070E00E944D23C8010F
:1014F000D9018C01E4E5F1E0008311830091B80487
:10150000013009F500E00093B804E0E5F1E0008166
:101510001181E7E7F1E00287138707E711E020E098
:101520000BC030E0F801E20FF31F408130E0F90119
:10153000ED55FD4F40832395283298F328E200E0D3
:1015400015E00E9481110091B804023009F088C0B2
:1015500000E00093B804E0E5F1E000811181E7E7E5
:10156000F1E0068B178BE7E7F1E002851385E7E7EB
:10157000F1E0268937890217130731F000917A01CB
:1015800010918601011769F401E010E0E7E7F1E04E
:10159000068F178F00E010E0E7E7F1E006A317A33E
:1015A00049C000917A01102F110F110B2091860173
:1015B000322F330F330B021B130B212F220F220B61
:1015C000322F48EE53E060E070E00E940B23E7E723
:1015D000F1E042855385E7E7F1E066897789461BAC
:1015E000570B60E070E00E944D23E7E7F1E0068FC3
:1015F000178F60908601762C770C7708E7E7F1E08B
:10160000068D178D212F220F220B322FE7E7F1E0F5
:101610004689578960E070E00E940B2348EE53E052
:1016200060E070E00E944D23601A710AE7E7F1E084
:1016300066A277A207E711E020E00BC030E0F801D6
:10164000E20FF31F408130E0F901ED55FD4F40837B
:101650002395283298F328E200E015E00E948111DA
:10166000E7E7F1E0068D178D212F220F220B322F95
:10167000AC01BD010E940B2344E650E060E070E045
:101680000E944D23C801D901E7E7F1E006A117A1A7
:101690004AE050E00E94BE22212F220F220B322F5F
:1016A000080F191F2A1F3B1FC801D901E4E1F1E00F
:1016B00084A795A7E6E0F1E000811181E4E1F1E083
:1016C00024A535A5200F311F24A735A7E4E1F1E0BB
:1016D00004A515A54AE050E00E94E72200934501C9
:1016E00013C2A0E0B0E08C019D0148EE53E060E041
:1016F00070E00E940B2340E054E060E070E00E9444
:101700004D23C801D9018C01E2E5F1E0008311838A
:101710000091B704013009F500E00093B704E2E559
:10172000F1E000811181E7E7F1E00087118707E729
:1017300011E020E00BC030E0F801E20FF31F408120
:1017400030E0F901ED55FD4F40832395283298F3A1
:1017500028E200E015E00E9481110091B7040230F8
:1017600009F088C000E00093B704E2E5F1E00081F1
:101770001181E7E7F1E0048B158BE7E7F1E00085E5
:101780001185E7E7F1E0248935890217130731F065
:101790000091790110918501011769F401E010E0D1
:1017A000E7E7F1E0048F158F00E010E0E7E7F1E0F4
:1017B00004A315A349C000917901102F110F110B3B
:1017C00020918501322F330F330B021B130B212F76
:1017D000220F220B322F48EE53E060E070E00E94AF
:1017E0000B23E7E7F1E040855185E7E7F1E0648905
:1017F0007589461B570B60E070E00E944D23E7E7B8
:10180000F1E0048F158F60908501762C770C7708B6
:10181000E7E7F1E0048D158D212F220F220B322FE7
:10182000E7E7F1E04489558960E070E00E940B230E
:1018300048EE53E060E070E00E944D23601A710AA8
:10184000E7E7F1E064A275A207E711E020E00BC032
:1018500030E0F801E20FF31F408130E0F901ED556F
:10186000FD4F40832395283298F328E200E015E0ED
:101870000E948111E7E7F1E0048D158D212F220FE1
:10188000220B322FAC01BD010E940B2344E650E035
:1018900060E070E00E944D23C801D901E7E7F1E064
:1018A00004A115A14AE050E00E94BE22212F220F80
:1018B000220B322F080F191F2A1F3B1FC801D90105
:1018C000E4E1F1E082A793A7E4E0F1E00081118177
:1018D000E4E1F1E022A533A5200F311F22A733A7B1
:1018E000E4E1F1E002A513A54AE050E00E94E722FE
:1018F0000093440109C1A0E0B0E08C019D0148EED5
:1019000053E060E070E00E940B2340E054E060E0B0
:1019100070E00E944D23C801D9018C01E0E5F1E09F
:10192000008311830091B604013009F500E00093B3
:10193000B604E0E5F1E000811181E7E7F1E006831C
:10194000178307E711E020E00BC030E0F801E20F59
:10195000F31F408130E0F901ED55FD4F40832395A1
:10196000283298F328E200E015E00E9481110091EE
:10197000B604023009F088C000E00093B604E0E548
:10198000F1E000811181E7E7F1E0028B138BE7E7DB
:10199000F1E006811781E7E7F1E022893389021738
:1019A000130731F00091780110918401011769F457
:1019B00001E010E0E7E7F1E0028F138F00E010E0B4
:1019C000E7E7F1E002A313A349C000917801102FCB
:1019D000110F110B20918401322F330F330B021B97
:1019E000130B212F220F220B322F48EE53E060E021
:1019F00070E00E940B23E7E7F1E046815781E7E7BB
:101A0000F1E062897389461B570B60E070E00E9429
:101A10004D23E7E7F1E0028F138F60908401762C6D
:101A2000770C7708E7E7F1E0028D138D212F220F65
:101A3000220B322FE7E7F1E04289538960E070E042
:101A40000E940B2348EE53E060E070E00E944D23BB
:101A5000601A710AE7E7F1E062A273A207E711E0FA
:101A600020E00BC030E0F801E20FF31F408130E0CE
:101A7000F901ED55FD4F40832395283298F328E274
:101A800000E015E00E948111E7E7F1E0028D138D7F
:101A9000212F220F220B322FAC01BD010E940B23FC
:101AA00044E650E060E070E00E944D23C801D90197
:101AB000E7E7F1E002A113A14AE050E00E94BE2254
:101AC000212F220F220B322F080F191F2A1F3B1F15
:101AD000C801D901E4E1F1E080A791A7E0E0F1E0DD
:101AE00000811181E4E1F1E020A531A5200F311F33
:101AF00020A731A7E4E1F1E000A511A54AE050E0FC
:101B00000E94E7220093430101E0401661F002E0E9
:101B1000401649F004E0401631F005E0401619F097
:101B200007E0401609F412D92296E8E00C94DB2372
:101B30009A938A9300E00093B1000CE211E00E94B6
:101B40008D032EE500E010E00E9442110023A9F071
:101B50000091B300093489F006EB10E080E08E3587
:101B600070F590E0FC01ED55FD4F208190E0F8010B
:101B7000E80FF91F20838395F2CF01E00093DE0088
:101B800001E00093DF0004EF11E0E2E1F1E0008307
:101B9000118304EF11E0E0E1F1E00083118380E0C4
:101BA0000CC000E010E0282F30E0220F331FF901B5
:101BB000E050FF4F008311838395883090F326E334
:101BC00000E012E00E944211002399F00091B3005E
:101BD000093479F080E08B31E0F490E0FC01ED55C0
:101BE000FD4F008190E0FC01E558FC4F0083839598
:101BF000F2CF80E00CC0E0EBF0E090E0E80FF91FDE
:101C0000049190E0FC01E558FC4F008383958B31F3
:101C100090F380E007C000E090E0FC01E155FC4F4C
:101C200000838395883DB8F328ED00E013E00E941F
:101C300042110023A1F00091B300093481F080E04B
:101C4000883D08F0A0C090E0FC01ED55FD4F0081FB
:101C500090E0FC01E155FC4F00838395F1CF80E0DB
:101C60008FC0EBECF0E090E0E80FF91F9491082FA3
:101C700010E047E050E00E94BE22F801E155FC4F21
:101C80009083E6EEF0E090E0E80FF91F9491082FC2
:101C900010E047E050E00E94BE220F5F1F4FF801A6
:101CA000E155FC4F9083E1E0F1E090E0E80FF91F8F
:101CB0009491082F10E047E050E00E94BE220E5F92
:101CC0001F4FF801E155FC4F9083ECE1F1E090E00B
:101CD000E80FF91F9491082F10E047E050E00E94B0
:101CE000BE220D5F1F4FF801E155FC4F9083E7E3E3
:101CF000F1E090E0E80FF91F9491082F10E047E021
:101D000050E00E94BE220C5F1F4FF801E155FC4FCE
:101D10009083E2E5F1E090E0E80FF91F9491082F3D
:101D200010E047E050E00E94BE220B5F1F4FF80119
:101D3000E155FC4F9083EDE6F1E090E0E80FF91FEC
:101D40009491082F10E047E050E00E94BE220A5F05
:101D50001F4FF801E155FC4F9083E8E8F1E090E077
:101D6000E80FF91F9491082F10E047E050E00E941F
:101D7000BE22095F1F4FF801E155FC4F9083839508
:101D80008B3108F46ECF2CE300E011E00E94421189
:101D90000023B1F00091B300093491F004E111E0A7
:101DA00080E08C3308F065C090E0FC01ED55FD4FFC
:101DB000208190E0F801E80FF91F20838395F1CF8F
:101DC00000E00093140101E00093150100E000938E
:101DD000160101E00093170101E00093180101E0F2
:101DE0000093190180E007C000E090E0FC01EC5E88
:101DF000FE4F028783958430B8F380E007C000E08F
:101E000090E0FC01EC5EFE4F068383958430B8F3CE
:101E100000E20093220100E20093230100E200931C
:101E2000240100E2009325010EE1009336010EE14A
:101E3000009337010EE1009338010EE10093390160
:101E400080E015C0E0EAF0E0082F10E0000F111F5D
:101E5000E00FF11F259134913197082F10E0000F0A
:101E6000111FF801EC5EFE4F228B338B8395883077
:101E700048F328E200E015E00E9442110023B1F08F
:101E80000091B300093491F007E711E080E0883257
:101E900008F049C090E0FC01ED55FD4F208190E035
:101EA000F801E80FF91F20838395F1CF80E039C056
:101EB00000E090E0FC01E958FE4F008300E010E0F4
:101EC000282F30E0220F331FF901E958FE4F048319
:101ED000158300E090E0FC01E958FE4F048700E024
:101EE00010E0282F30E0220F331FF901E958FE4F90
:101EF000008B118B04E110E0282F30E0220F331FFC
:101F0000F901E958FE4F008F118F00EF1FEF282FC6
:101F100030E0220F331FF901E958FE4F00A311A34F
:101F20008395843028F228E200E415E00E944211F3
:101F30000023B1F00091B300093491F00FE911E0F2
:101F400080E0883208F049C090E0FC01ED55FD4F7B
:101F5000208190E0F801E80FF91F20838395F1CFED
:101F600080E039C000E090E0FC01E156FE4F0083C4
:101F700000E010E0282F30E0220F331FF901E15676
:101F8000FE4F0483158300E090E0FC01E156FE4F14
:101F9000048700E010E0282F30E0220F331FF90102
:101FA000E156FE4F008B118B02E110E0282F30E04C
:101FB000220F331FF901E156FE4F008F118F05EB01
:101FC0001FEF282F30E0220F331FF901E156FE4F9B
:101FD00000A311A38395843028F228E200E815E0DD
:101FE0000E9442110023B1F00091B300093491F036
:101FF00007EC11E080E0883208F049C090E0FC0175
:10200000ED55FD4F208190E0F801E80FF91F208386
:102010008395F1CF80E039C000E090E0FC01E95306
:10202000FE4F008300E010E0282F30E0220F331F26
:10203000F901E953FE4F0483158300E090E0FC01B1
:10204000E953FE4F048700E010E0282F30E0220F14
:10205000331FF901E953FE4F008B118B01E010E0B3
:10206000282F30E0220F331FF901E953FE4F008F74
:10207000118F00E010E0282F30E0220F331FF9010C
:10208000E953FE4F00A311A38395843028F280E02A
:102090000BC090E0FC01E056FF4F008190E0FC0196
:1020A000EA54FF4F02A783958A3098F300E000932B
:1020B000EB0001E00093EA000EE10093460100E02E
:1020C0000093B20005C0E2EBF0E0008103950083CD
:1020D000E7EBF1E00091B20010E0000F111F000FDC
:1020E000111FE00FF11F2591349131972F3F0FEF12
:1020F000300749F70E94BA1100E08991999108953B
:1021000001E001C00A950023E9F70895002311F0CA
:10211000A99A0895A9980895002311F0A89A0895FE
:10212000A8980895A09AA19A01E0F6DF01E0EEDFF9
:1021300000E0ECDF00E0F0DFE3DF0895A09AA19A71
:1021400000E0E4DF01E0E8DFDBDF01E0DFDFD8DF34
:1021500001E0E2DFD5DF08959A938A93902FA09A49
:10216000A19A80E009C000E0D1DFCADF01E0D4DF3E
:1021700000E0D2DF990F8395883028F497FB9EF713
:1021800001E0C4DFF2CF8991999108959A938A93DF
:1021900090E0A09AA19880E00CC001E0BDDFB0DF24
:1021A000990F999B02C0916001E000E0B5DFA8DFC4
:1021B0008395883090F3092F8991999108958A9396
:1021C000A09AA19801E0A2DF9BDF01E0A5DF999B27
:1021D00002C081E001C080E000E09EDF91DFA19AB3
:1021E0008FDF082F899108958A932297A8950883F5
:1021F000198386DFA3DF96DF0981000F006AACDF59
:10220000DEDF0881A9DFDBDF8DDF0981000F016AD6
:10221000A3DFD5DFBBDF802F91DF082F22968991C6
:1022200008959A938A932297922F80E008831983C6
:10223000A89502C0839564DF853028F07FDF60DFDA
:1022400080E000E01BC05CDF6DDF0981000F006AE9
:1022500083DFB5DF002371F708817EDFB0DF002365
:1022600019F083954DDFE8CF092F76DFA8DF002333
:1022700019F0839545DFE0CF61DF01E02296899177
:10228000999108950E94CE232801822F00E009BF72
:10229000F894A0E00DC00A2F10E0040D151D0C5F8E
:1022A0001F4FA2DFB0E0FD01ED55FD4F0083A39568
:1022B000E82FF0E03196B0E0EA17FB0764F7282F2B
:1022C00003EA12E00E94540490E0FC01ED55FD4F3A
:1022D000408150E090E00196FC01ED55FD4F3081CA
:1022E00020E0240F351F41E049BF789402171307FF
:1022F00011F4012B11F400E001C001E0E6E00C94C0
:10230000DD230E94CE23D801822F282F03EA12E07A
:102310000E945404202F90E0FC01ED55FD4F2083D6
:10232000012F10E0202F082F10E00F5F1F4FF80142
:10233000ED55FD4F208300E009BFF89444240DC003
:10234000042D10E00A0F1B1F0C5F1F4F5524F201D4
:10235000ED55FD4F208165DF4394E82FF0E0319685
:102360005524E415F50564F701E009BF7894E6E02B
:102370000C94DD2300E00093A90405C0E9EAF4E031
:10238000008103950083E3EAF1E00091A904102F96
:10239000110F110B000F111FE00FF11F2591349148
:1023A00031972F3F0FEF300749F708950E94C6235A
:1023B000662488249924B0E0C090F701DD24A09120
:1023C000F6018AE08601ECEDF2E00C947723ABE1B4
:1023D0000091F401023DB9F490E00EC0082F10E026
:1023E000F801E151FE4F2081092F10E0F801E55876
:1023F000FC4F2083839593959A1780F3B1E001E019
:1024000000937A035DC390E09A1708F059C3092F2F
:1024100010E0F801E558FC4F2081082F10E0F8018A
:10242000E151FE4F208383959395EECFA4E0009178
:10243000F401023D19F590E01DC0082F10E0F801ED
:10244000E151FE4F408150E0082F10E00F5F1F4F19
:10245000F801E151FE4F308120E0240F351F092F94
:1024600010E0000F111FF801E558FC4F268F378F41
:102470008E5F93959A1708F3B1E022C390E09A1704
:1024800008F01EC3092F10E0000F111FF801E558D6
:10249000FC4F068D178D202F082F10E0F801E15119
:1024A000FE4F20838395092F10E0000F111FF801C4
:1024B000E558FC4F068D178D012F110F110B202FA2
:1024C000082F10E0F801E151FE4F2083839593958A
:1024D000D6CF0091F401013D09F0F2C290E0092F3E
:1024E00010E02091A904322F330F330B021713078A
:1024F0000CF0E6C2E3EAF1E0092F10E0000F111F33
:10250000E00FF11FA590B49031972A2D082F10E00D
:10251000F801E151FE4F208383958501012F110FB2
:10252000110B202F082F10E0F801E151FE4F2083FE
:1025300083959395D4CF0091F401013D09F0C0C279
:1025400090E0092F10E02091B404322F330F330BA9
:10255000021713070CF0B4C2E5EBF1E0092F10E00D
:10256000000F111FE00FF11FA590B49031972A2D95
:10257000082F10E0F801E151FE4F2083839585017B
:10258000012F110F110B202F082F10E0F801E1513E
:10259000FE4F208383959395D4CF90E0FC01E151C9
:1025A000FE4F00810A951091A904019FA02D8395EB
:1025B0000091F401023D41F590E012C0082F10E0B7
:1025C000F801E151FE4F40812A2F30E0092F10E041
:1025D000020F131FF801E155FC4F4083839593953B
:1025E000092F10E02091A904322F330F330B02176B
:1025F000130724F30091F9010B3109F061C2B1E036
:1026000001E000937A035CC290E0092F10E0209172
:10261000A904322F330F330B021713070CF050C2EB
:102620002A2F30E0092F10E0020F131FF801E155A7
:10263000FC4F2081082F10E0F801E151FE4F20836C
:1026400083959395E2CF90E0FC01E151FE4F00812C
:102650000A951091B404019FA02D83950091F40177
:10266000023D29F590E012C0082F10E0F801E15179
:10267000FE4F40812A2F30E0092F10E0020F131F78
:10268000F801E655FB4F408383959395092F10E0A1
:102690002091B404322F330F330B0217130724F3A6
:1026A0000091F901043009F00BC2B1E009C290E0D9
:1026B000092F10E02091B404322F330F330B02178F
:1026C00013070CF0FDC12A2F30E0092F10E0020F94
:1026D000131FF801E655FB4F2081082F10E0F80189
:1026E000E151FE4F208383959395E2CF0091F40151
:1026F000023D09F0E5C1082F10E0F801E151FE4F5D
:10270000208130E0082F10E00F5F1F4FF801E151EA
:10271000FE4F90808824820E931E082F10E00E5FDB
:102720001F4FF801E151FE4F608003E5801603EF73
:102730009006E1F4082F10E00D5F1F4FF801E15102
:10274000FE4F2081062D10E001501040F801E9589D
:10275000FE4F20838C5F11E077240FEF600E0FEFA8
:10276000701EF301EB54FB4F108320C005E580166B
:1027700003EF9006D9F4082F10E00D5F1F4FF8010A
:10278000E151FE4F2081062D10E001501040F8016C
:10279000E156FE4F20838C5F11E077240FEF600E2F
:1027A0000FEF701EF301E754FB4F1083B1E005E01B
:1027B00010E00E948D0384C10091F401023D09F0F4
:1027C0007FC1082F10E0F801E151FE4F208130E079
:1027D000082F10E00F5F1F4FF801E151FE4F90806E
:1027E0008824820E931E082F10E00E5F1F4FF80101
:1027F000E151FE4F608003E5801603EF9006E1F49F
:10280000082F10E00D5F1F4FF801E151FE4F2081AE
:10281000062D10E001501040F801E958FE4F2487C2
:102820008C5F12E077240FEF600E0FEF701EF30144
:10283000EB54FB4F108320C005E5801603EF900694
:10284000D9F4082F10E00D5F1F4FF801E151FE4F42
:102850002081062D10E001501040F801E156FE4F96
:1028600024878C5F12E077240FEF600E0FEF701E4D
:10287000F301E754FB4F1083B1E005E010E00E9444
:102880008D031EC10091F401013D09F019C1082F0B
:1028900010E0F801E151FE4F208130E0082F10E0F8
:1028A0000F5F1F4FF801E151FE4F90808824820E88
:1028B000931E082F10E00E5F1F4FF801E151FE4FED
:1028C00060808D5F03E5801603EF900609F06FC00E
:1028D000062D10E001501040F801E958FE4F20810C
:1028E000082F10E0F801E151FE4F20838395062D5B
:1028F00010E001501040000F111FF801E958FE4F81
:1029000004811581202F082F10E0F801E151FE4FBE
:1029100020838395062D10E001501040000F111FF9
:10292000F801E958FE4F04811581012F10E0202F96
:10293000082F10E0F801E151FE4F20838395062D0A
:1029400010E001501040F801E958FE4F2485082F8F
:1029500010E0F801E151FE4F20838395062D10E031
:1029600001501040000F111FF801E958FE4F008977
:102970001189202F082F10E0F801E151FE4F20832C
:102980008395062D10E001501040000F111FF80133
:10299000E958FE4F00891189012F10E0202F082FE0
:1029A00010E0F801E151FE4F2083839574C005E5E6
:1029B000801603EF900609F06EC0062D10E001505E
:1029C0001040F801E156FE4F2081082F10E0F80179
:1029D000E151FE4F20838395062D10E001501040F9
:1029E000000F111FF801E156FE4F04811581202FC1
:1029F000082F10E0F801E151FE4F20838395062D4A
:102A000010E001501040000F111FF801E156FE4F79
:102A100004811581012F10E0202F082F10E0F8010C
:102A2000E151FE4F20838395062D10E001501040A8
:102A3000F801E156FE4F2485082F10E0F801E1511E
:102A4000FE4F20838395062D10E001501040000FAB
:102A5000111FF801E156FE4F00891189202F082F20
:102A600010E0F801E151FE4F20838395062D10E020
:102A700001501040000F111FF801E156FE4F008970
:102A80001189012F10E0202F082F10E0F801E151EB
:102A9000FE4F2083839505E010E00E948D0310C057
:102AA00000E00093F5010CE00093580310E096015C
:102AB0000091F4010E944D16F894E0E0F0E70995CA
:102AC000082F07500093F6018D5F8093580310E0A4
:102AD00096010091F4010E944D1605E010E00E945D
:102AE0008D03B13009F0A9C003E0C01600E0D006A4
:102AF00048F40BE7402E03E0502E96E3AA2402E0B0
:102B0000B02E42C006E0C01600E0D00649F40FEA3D
:102B1000402E03E0502E9EEBAA2403E0B02E34C0DA
:102B200007E0C01600E0D00649F40AEA402E04E0AF
:102B3000502E92E0AA2404E0B02E26C00AE0C0166F
:102B400000E0D00629F00BE0C01600E0D006E1F46A
:102B500003E5801603EF900649F407E7402E01E0F5
:102B6000502E98E2AA2405E0B02E0EC005E580168E
:102B700003EF900649F40FE9402E01E0502E98E251
:102B800000E4A02E05E0B02E03E0C01600E0D00661
:102B9000E8F500E00BC010E0F801E558FC4F20819B
:102BA00010E0F801ED55FD4F208303950B3198F3AC
:102BB00000E00430D0F5202F30E0220F331FF90160
:102BC000E558FC4F268D378D12E0019F1BE1010E69
:102BD00010E0111EF001ED55FD4F2083202F30E055
:102BE000220F331FF901E558FC4F268D378D232F17
:102BF000330F330B12E0019F1CE1010E10E0111E98
:102C0000F001ED55FD4F20830395D3CF00E00BC0BD
:102C100010E0F201E00FF11F208110E0F801ED5506
:102C2000FD4F20830395091798F3292F85010E94F2
:102C3000811105E010E00E948D03EEE00C94D52395
:102C400001E00E94F02102E010E00E948D03A895AF
:102C500016C05D9B14C00091590310E0F801ED55BA
:102C6000FD4F00810CB9E9E5F3E000810395008395
:102C700000915903043B18F000E0009359030091C0
:102C8000590310915A03011721F705E010E00E9443
:102C90008D0300E00E94F02108952091F3012F3F61
:102CA00049F42091F401203529F02091F4012034D9
:102CB00009F0D1C0015C61F00A9569F00F5071F024
:102CC0000A9579F00E5621F0005111F0005161F48F
:102CD0001093F5010BC01093F50108C01093F50196
:102CE00005C01093F50102C01093F501209158031F
:102CF000245000EF11E00E945404402F209158030B
:102D000030E023503040F901E151FE4F4083012F64
:102D100010E0202F0091580310E002501040F801FD
:102D2000E151FE4F208300915A03043B18F000E06C
:102D300000935A0300E000935A03009359030EE4F2
:102D400020915A0330E0F901ED55FD4F0083EAE58B
:102D5000F3E000810395008301E019C010E0F80161
:102D6000E151FE4F108120915A0330E0F901ED55F9
:102D7000FD4F1083EAE5F3E0108113951083109165
:102D80005A03143B18F010E010935A03039510E017
:102D90002091580330E021503040021713070CF007
:102DA00045C010E0F801E151FE4F10811E34D9F406
:102DB0001EE520915A0330E0F901ED55FD4F1083D7
:102DC000EAE5F3E01081139510831DE420915A0386
:102DD00030E0F901ED55FD4F1083EAE5F3E0108195
:102DE00013951083CCCF10E0F801E151FE4F108114
:102DF0001E3509F0B3CF1EE520915A0330E0F901EA
:102E0000ED55FD4F1083EAE5F3E010811395108333
:102E10001DE520915A0330E0F901ED55FD4F108377
:102E2000EAE5F3E0108113951083A9CF0EE4209119
:102E30005A0330E0F901ED55FD4F0083EAE5F3E078
:102E400000810395008300915A03043B18F000E0D1
:102E500000935A03F5DE08959A938A930091BE0475
:102E6000023008F458C00091EF010E3409F04EC052
:102E70000091F001013009F049C00091F5010F3FC8
:102E800009F044C00091F4010034F1F00091F10127
:102E90000F700230D9F5009158030B30B8F1009152
:102EA000580310E001501040F801E151FE4F00813D
:102EB0000E3461F50091F3010F3F31F00091F30101
:102EC0001091DE00011711F50091580310E0025037
:102ED0001040F801E151FE4F308120E0009158038D
:102EE00010E003501040F801E151FE4F808190E066
:102EF000820F931F20915803245000EF11E00E948D
:102F000054048017910711F401E006C000E000931B
:102F100058030093BE0400E08991999108950E949E
:102F2000CE230091F3011091DE00011751F00091C2
:102F3000F3010F3F09F073C20091F401003409F06E
:102F40006EC2A0E017C00091F401003649F022E003
:102F50000A2F10E0065F1F4FF801E151FE4F20835A
:102F60000A2F10E0075F1F4FF801E151FE4F00816B
:102F70000D5FA00FB0E00091580310E00A50104020
:102F8000A017B1070CF016C28A2F90E00896FC013A
:102F9000E151FE4F108100E08A2F90E00796FC017E
:102FA000E151FE4F40805524400E511E0A2F10E083
:102FB000075F1F4FF801E151FE4F80818201EEEF64
:102FC000F2E00C9477238A3008F08AE00091F40153
:102FD0000036A9F400E0081718F610E02A2F30E0B8
:102FE000200F311F265F3F4FF901E151FE4F208135
:102FF00010E0F801EA54FF4F20830395ECCF00E086
:10300000081708F0ADCF10E0F801EA54FF4F4081F7
:1030100010E02A2F30E0200F311F265F3F4FF901CB
:10302000E151FE4F40830395EBCF8E3108F08EE1E6
:103030000091F4010036B1F400E0081708F090CFD9
:1030400010E02A2F30E0200F311F265F3F4FF9019B
:10305000E151FE4F208110E0F801EA54FF4F228732
:103060000395EBCF00E0081708F07ACF10E0F801E5
:10307000EA54FF4F428510E02A2F30E0200F311F25
:10308000265F3F4FF901E151FE4F40830395EBCF9F
:103090000091F401003659F40A2F10E0065F1F4F2B
:1030A000F801E151FE4F00810093DE0059CF0091FD
:1030B000F401003409F054CF2091DE000A2F10E013
:1030C000065F1F4FF801E151FE4F208349CF009169
:1030D000F401003609F444CF22E00A2F10E0065F25
:1030E0001F4FF801E151FE4F20833ACF8A3008F09C
:1030F0008AE00091F4010036B1F400E0081708F00E
:103100002FCFB0E0202F30E02A0F3B1F265F3F4F2C
:10311000F901E151FE4F208110E0F801EA54FF4F20
:1031200022A70395EBCF00E0081708F019CF10E0B5
:10313000F801EA54FF4F12A5B0E0202F30E02A0F2B
:103140003B1F265F3F4FF901E151FE4F108303956E
:10315000EBCF0091F4010036A9F40A2F10E0065FCE
:103160001F4FF801E151FE4F00810093EA000A2F42
:1031700010E0055F1F4FF801E151FE4F0081009301
:10318000EB00EECE2091EA000A2F10E0065F1F4F01
:10319000F801E151FE4F20832091EB000A2F10E04F
:1031A000055F1F4FF801E151FE4F2083D9CE8431D6
:1031B00008F084E10091F4010036B1F400E0081752
:1031C00008F0CECEB0E0202F30E02A0F3B1F265F64
:1031D0003F4FF901E151FE4F208110E0F801EA5420
:1031E000FF4F26AB0395EBCF00E0081708F0B8CEF1
:1031F00010E0F801EA54FF4F16A9B0E0202F30E0AC
:103200002A0F3B1F265F3F4FF901E151FE4F10830C
:103210000395EBCF0A2F10E0095F1F4FF801E15132
:10322000FE4F008100531091F4011036D9F48A2F1B
:1032300090E00A96FC01E151FE4F408150E08A2F58
:1032400090E00B96FC01E151FE4F308120E0240F0D
:10325000351F10E0000F111FF801E050FF4F2083D1
:1032600031837ECE202F30E0220F331FF901E05052
:10327000FF4F208131818A2F90E00A96FC01E151B5
:10328000FE4F208310E0000F111FF801E050FF4FA8
:1032900000811181012F110F110B202F0A2F10E037
:1032A000055F1F4FF801E151FE4F208359CE009179
:1032B000F4010036C9F40A2F10E0065F1F4FF80131
:1032C000E151FE4F208130E00A2F10E0055F1F4FD3
:1032D000F801E151FE4F108100E0020F131FE2E1FF
:1032E000F1E0008311833CCEE2E1F1E00081118145
:1032F000202F0A2F10E0065F1F4FF801E151FE4F0B
:103300002083E2E1F1E000811181012F10E0202F04
:103310000A2F10E0055F1F4FF801E151FE4F208397
:103320001FCE0091F4010036C9F40A2F10E0065FA9
:103330001F4FF801E151FE4F208130E00A2F10E0CD
:10334000055F1F4FF801E151FE4F108100E0020FB1
:10335000131FE0E1F1E00083118302CEE0E1F1E030
:1033600000811181202F0A2F10E0065F1F4FF80106
:10337000E151FE4F2083E0E1F1E000811181012F56
:1033800010E0202F0A2F10E0055F1F4FF801E151D8
:10339000FE4F2083E5CD0091F401003609F4E0CD25
:1033A00022E00A2F10E0065F1F4FF801E151FE4FA7
:1033B0002083D6CD10E092010091F4016EDC0091E3
:1033C000F401003661F506EB10E0A0E00BC0B0E0C0
:1033D000F801EA0FFB1F2081B0E0FD01ED55FD4F24
:1033E0002083A395AE3598F32EE500E010E00E940F
:1033F000811104E111E0A0E00BC0B0E0F801EA0F98
:10340000FB1F2081B0E0FD01ED55FD4F2083A3950A
:10341000A83298F32CE300E011E00E948111E6E06D
:103420000C94DD230E94C823249780E00091F301CF
:103430001091DE00011709F0E9C6A0E014C0209148
:103440004D010A2F10E0065F1F4FF801E151FE4FBA
:1034500020830A2F10E0075F1F4FF801E151FE4F54
:1034600000810D5FA00FB0E0E0915803F0E03A97C3
:10347000AE17BF070CF092C60A2F10E0085F1F4F6F
:10348000F801E151FE4F308120E00A2F10E0095F82
:103490001F4FF801E151FE4F40805524420E531E4C
:1034A0000A2F10E0075F1F4FF801E151FE4F908196
:1034B0008201EEE3F3E00C9477230091F401013CE8
:1034C000E9F4913011F087E0C4CF0A2F10E0065FD5
:1034D0001F4FF801E151FE4F00810093140100914C
:1034E0001401013018F001E000931401009114015F
:1034F000002311F49398ADCF939AABCF913011F094
:1035000088E0A7CF209114010A2F10E0065F1F4F1B
:10351000F801E151FE4F20839CCF0091F401013C62
:10352000F9F4913011F087E094CF0A2F10E0065F94
:103530001F4FF801E151FE4F0081009317010091E8
:103540001701013018F001E00093170100911701F5
:10355000002311F4929801C0929A0E94E40579CF59
:10356000913011F088E075CF209117010A2F10E0FB
:10357000065F1F4FF801E151FE4F20836ACF009193
:10358000F401013CE9F4913011F087E062CF0A2F99
:1035900010E0065F1F4FF801E151FE4F00810093DC
:1035A000150100911501013018F001E0009315019B
:1035B00000911501002311F4AA984BCFAA9A49CF84
:1035C000913011F088E045CF209115010A2F10E0CD
:1035D000065F1F4FF801E151FE4F20833ACF009163
:1035E000F401013CF9F4913011F087E032CF0A2F59
:1035F00010E0065F1F4FF801E151FE4F008100937C
:10360000180100911801013018F001E00093180131
:1036100000911801002311F4AB9801C0AB9A0E94ED
:10362000E40517CF913011F088E013CF20911801F5
:103630000A2F10E0065F1F4FF801E151FE4F208373
:1036400008CF0091F401013C09F04FC0913011F016
:1036500087E0FFCE0A2F10E0065F1F4FF801E1510F
:10366000FE4F008100933601009136010D3324F0A6
:103670000CE30093360187E000913601102F110F03
:10368000110B212F312F48EE53E060E070E00E94D3
:103690000B23E7E7F1E0408D518D652F660F660B38
:1036A000762F0E944D2348015901E7E7F1E000A180
:1036B00011A148EE53E00E94BE22E7E7F1E0408D01
:1036C000518D0E94E722A801652F660F660B762FA9
:1036D00084019501041B150B260B370BE4E1F1E087
:1036E000028B138B0E94E405B4CE913011F088E078
:1036F000B0CE209136010A2F10E0065F1F4FF8016F
:10370000E151FE4F2083A5CE0091F401013C09F068
:103710004FC0913011F087E09CCE0A2F10E0065F79
:103720001F4FF801E151FE4F0081009337010091D6
:1037300037010D3324F00CE30093370187E000914B
:103740003701102F110F110B212F312F48EE53E0AD
:1037500060E070E00E940B23E7E7F1E0428D538DBB
:10376000652F660F660B762F0E944D234801590185
:10377000E7E7F1E002A113A148EE53E00E94BE2268
:10378000E7E7F1E0428D538D0E94E722A801652F03
:10379000660F660B762F84019501041B150B260B13
:1037A000370BE4E1F1E0048B158B0E94E40551CE68
:1037B000913011F088E04DCE209137010A2F10E0B2
:1037C000065F1F4FF801E151FE4F208342CE00916A
:1037D000F401013C09F04FC0913011F087E039CE7F
:1037E0000A2F10E0065F1F4FF801E151FE4F0081E4
:1037F00000933801009138010D3324F00CE300935D
:10380000380187E000913801102F110F110B212F83
:10381000312F48EE53E060E070E00E940B23E7E7B1
:10382000F1E0448D558D652F660F660B762F0E9453
:103830004D2348015901E7E7F1E004A115A148EE45
:1038400053E00E94BE22E7E7F1E0448D558D0E94CF
:10385000E722A801652F660F660B762F840195017C
:10386000041B150B260B370BE4E1F1E0068B178BDD
:103870000E94E405EECD913011F088E0EACD209170
:1038800038010A2F10E0065F1F4FF801E151FE4F8B
:103890002083DFCD0091F401013C09F04FC091304D
:1038A00011F087E0D6CD0A2F10E0065F1F4FF80118
:1038B000E151FE4F008100933901009139010D3330
:1038C00024F00CE30093390187E000913901102FB7
:1038D000110F110B212F312F48EE53E060E070E003
:1038E0000E940B23E7E7F1E0468D578D652F660FA9
:1038F000660B762F0E944D2348015901E7E7F1E05E
:1039000006A117A148EE53E00E94BE22E7E7F1E0CE
:10391000468D578D0E94E722A801652F660F660B22
:10392000762F84019501041B150B260B370BE4E160
:10393000F1E0008F118F0E94E4058BCD913011F0E2
:1039400088E087CD209139010A2F10E0065F1F4FD4
:10395000F801E151FE4F20837CCD0091F401013C40
:10396000C1F4913011F087E074CD0A2F10E0065FAA
:103970001F4FF801E151FE4F008100932201009199
:1039800022010C330CF465CD0CE30093220187E097
:1039900060CD913011F088E05CCD209122010A2F9A
:1039A00010E0065F1F4FF801E151FE4F208351CD1B
:1039B0000091F401013CC1F4913011F087E049CD50
:1039C0000A2F10E0065F1F4FF801E151FE4F008102
:1039D00000932301009123010C330CF43ACD0CE346
:1039E0000093230187E035CD913011F088E031CD8F
:1039F000209123010A2F10E0065F1F4FF801E151CB
:103A0000FE4F208326CD0091F401013CC1F491309A
:103A100011F087E01ECD0A2F10E0065F1F4FF8015E
:103A2000E151FE4F008100932401009124010C33E9
:103A30000CF40FCD0CE30093240187E00ACD913004
:103A400011F088E006CD209124010A2F10E0065FD6
:103A50001F4FF801E151FE4F2083FBCC0091F40190
:103A6000013CC1F4913011F087E0F3CC0A2F10E053
:103A7000065F1F4FF801E151FE4F008100932501C1
:103A8000009125010C330CF4E4CC0CE300932501E8
:103A900087E0DFCC913011F088E0DBCC209125016C
:103AA0000A2F10E0065F1F4FF801E151FE4F2083FF
:103AB000D0CC0091F401013CE9F4913011F087E0A1
:103AC000C8CC0A2F10E0065F1F4FF801E151FE4FEE
:103AD0000081003210F087E0BCCC0A2F10E0065FB6
:103AE0001F4FF801E151FE4F008100931A010E941F
:103AF0004C05AFCC0091F401023C79F4913011F007
:103B000088E0A7CC20911A010A2F10E0065F1F4F12
:103B1000F801E151FE4F20839CCC81E09ACC0091CA
:103B2000F401013CE9F4913011F087E092CC0A2FC6
:103B300010E0065F1F4FF801E151FE4F0081003297
:103B400010F087E086CC0A2F10E0065F1F4FF801C7
:103B5000E151FE4F008100931B010E94000579CCCA
:103B60000091F401023C79F4913011F088E071CCBD
:103B700020911B010A2F10E0065F1F4FF801E15151
:103B8000FE4F208366CC81E064CC0091F401013CBF
:103B9000E9F4913011F087E05CCC0A2F10E0065F69
:103BA0001F4FF801E151FE4F0081003210F087E015
:103BB00050CC0A2F10E0065F1F4FF801E151FE4F75
:103BC000008100931C010E944C0543CC0091F4013C
:103BD000023C79F4913011F088E03BCC20911C013B
:103BE0000A2F10E0065F1F4FF801E151FE4F2083BE
:103BF00030CC81E02ECC0091F401013CE9F491300D
:103C000011F087E026CC0A2F10E0065F1F4FF80165
:103C1000E151FE4F0081003210F087E01ACC0A2FEC
:103C200010E0065F1F4FF801E151FE4F0081009345
:103C30001D010E9400050DCC0091F401023C79F4B5
:103C4000913011F088E005CC20911D010A2F10E081
:103C5000065F1F4FF801E151FE4F2083FACB81E050
:103C6000F8CB0091F401013CE9F4913011F087E0C8
:103C7000F0CB0A2F10E0065F1F4FF801E151FE4F15
:103C80000081003210F087E0E4CB0A2F10E0065FDD
:103C90001F4FF801E151FE4F008100931E010E9469
:103CA000B404D7CB0091F401023C79F4913011F0C7
:103CB00088E0CFCB20911E010A2F10E0065F1F4F36
:103CC000F801E151FE4F2083C4CB81E0C2CB0091CB
:103CD000F401013CE9F4913011F087E0BACB0A2FEE
:103CE00010E0065F1F4FF801E151FE4F00810032E6
:103CF00010F087E0AECB0A2F10E0065F1F4FF801EF
:103D0000E151FE4F008100931F010E940005A1CBED
:103D10000091F401023C79F4913011F088E099CBE4
:103D200020911F010A2F10E0065F1F4FF801E1519B
:103D3000FE4F20838ECB81E08CCB0091F401013CBF
:103D4000E9F4913011F087E084CB0A2F10E0065F90
:103D50001F4FF801E151FE4F0081003210F087E063
:103D600078CB0A2F10E0065F1F4FF801E151FE4F9C
:103D70000081009320010E94B4046BCB0091F401F8
:103D8000023C79F4913011F088E063CB209120015E
:103D90000A2F10E0065F1F4FF801E151FE4F20830C
:103DA00058CB81E056CB0091F401013CE9F491300D
:103DB00011F087E04ECB0A2F10E0065F1F4FF8018D
:103DC000E151FE4F0081003210F087E042CB0A2F14
:103DD00010E0065F1F4FF801E151FE4F0081009394
:103DE00021010E94000535CB0091F401023C79F4D9
:103DF000913011F088E02DCB209121010A2F10E0A5
:103E0000065F1F4FF801E151FE4F208322CB81E076
:103E100020CB00E5401600E0500609F4662402E5D8
:103E2000401600E0500611F46624639400E6401644
:103E300000E0500611F402E0602E02E6401600E0B9
:103E4000500611F403E0602E0091F401013C09F0EA
:103E500041C0923011F087E0FCCA0A2F10E0065FE3
:103E60001F4FF801E151FE4F208130E00A2F10E092
:103E7000055F1F4FF801E151FE4F108100E0020F76
:103E8000131F212F220F220B322F262D30E0220F5D
:103E9000331FF901EC5EFE4F028B138B062D10E0F1
:103EA000000F111FF801EC5EFE4F2289338929387B
:103EB00003E1300760F008E813E1262D30E0220F1F
:103EC000331FF901EC5EFE4F028B138B81E00E94E1
:103ED000E405BFCA923011F088E0BBCA062D10E09D
:103EE000000F111FF801EC5EFE4F02891389202F8D
:103EF0000A2F10E0065F1F4FF801E151FE4F2083AB
:103F0000062D10E0000F111FF801EC5EFE4F028934
:103F10001389012F10E0202F0A2F10E0055F1F4F9B
:103F2000F801E151FE4F208394CA209142010A2FEB
:103F300010E0065F1F4FF801E151FE4F208389CA50
:103F4000209143010A2F10E0065F1F4FF801E15155
:103F5000FE4F20837ECA209144010A2F10E0065FA5
:103F60001F4FF801E151FE4F208373CA2091450194
:103F70000A2F10E0065F1F4FF801E151FE4F20832A
:103F800068CA209146010A2F10E0065F1F4FF80112
:103F9000E151FE4F20835DCAE4E1F1E003A914A9D9
:103FA000202F0A2F10E0065F1F4FF801E151FE4F4E
:103FB0002083E4E1F1E003A914A9012F10E0202FF0
:103FC0000A2F10E0055F1F4FF801E151FE4F2083DB
:103FD00040CAE4E1F1E002AD13AD202F0A2F10E05A
:103FE000065F1F4FF801E151FE4F2083E4E1F1E04D
:103FF00002AD13AD012F10E0202F0A2F10E0055F56
:104000001F4FF801E151FE4F208323CAE0E5F1E0A4
:1040100000811181202F0A2F10E0065F1F4FF80149
:10402000E151FE4F2083E0E5F1E000811181012F95
:1040300010E0202F0A2F10E0055F1F4FF801E1511B
:10404000FE4F208306CAE2E5F1E000811181202FB6
:104050000A2F10E0065F1F4FF801E151FE4F208349
:10406000E2E5F1E000811181012F10E0202F0A2FFD
:1040700010E0055F1F4FF801E151FE4F2083E9C9B1
:10408000E4E5F1E000811181202F0A2F10E0065FA6
:104090001F4FF801E151FE4F2083E4E5F1E000817C
:1040A0001181012F10E0202F0A2F10E0055F1F4F14
:1040B000F801E151FE4F2083CCC9E8E5F1E0008131
:1040C0001181202F0A2F10E0065F1F4FF801E151E8
:1040D000FE4F2083E8E5F1E000811181012F10E01F
:1040E000202F0A2F10E0055F1F4FF801E151FE4F0E
:1040F0002083AFC9E6E5F1E000811181202F0A2F6E
:1041000010E0065F1F4FF801E151FE4F2083E6E506
:10411000F1E000811181012F10E0202F0A2F10E023
:10412000055F1F4FF801E151FE4F208392C9209196
:104130005A010A2F10E0065F1F4FF801E151FE4FB0
:10414000208387C9209149010A2F10E0065F1F4F85
:10415000F801E151FE4F20837CC920914A010A2FCA
:1041600010E0065F1F4FF801E151FE4F208371C937
:1041700020914B010A2F10E0065F1F4FF801E1511B
:10418000FE4F208366C920914C010A2F10E0065F84
:104190001F4FF801E151FE4F20835BC9182F920198
:1041A0000091F4010E944D160091F401013C71F55B
:1041B000813060F504E111E0A0E00BC0B0E0F8014F
:1041C000EA0FFB1F2081B0E0FD01ED55FD4F20837C
:1041D000A395A83298F32CE300E011E00E9481112E
:1041E00006EB10E0A0E00BC0B0E0F801EA0FFB1F07
:1041F0002081B0E0FD01ED55FD4F2083A395AE3544
:1042000098F32EE500E010E00E9481112496ECE086
:104210000C94D7238A938091F601813099F4009110
:10422000B20044E10E94B0220093BD040091B200AC
:1042300044E10E94B022442329F0EDEBF4E0008138
:10424000039500830091BD040093F6018093F7016C
:1042500029E08A9504E1809F002D1091B20001179A
:1042600008F05FC0E7EBF1E0402F50E0440F551F2E
:10427000440F551FE40FF51F45915491319730E0DD
:10428000F901E151FE4F40832395E7EBF1E0402F28
:1042900050E0440F551F440F551FE40FF51F459183
:1042A00054913197452F50E030E0F901E151FE4F34
:1042B00040832395E9EBF1E0402F50E0440F551F78
:1042C000440F551FE40FF51F149130E0F901E1513F
:1042D000FE4F10832395EAEBF1E0402F50E0440FAE
:1042E000551F440F551FE40FF51F149130E0F901DD
:1042F000E151FE4F108323950395283590F4E7EBA9
:10430000F1E0402F50E0440F551F440F551FE40FBC
:10431000F51F4591549131974F3F1FEF510709F019
:104320009CCF2D5F2093580310E020E030E00091F7
:10433000F4010E944D16899108950E942C170023C4
:1043400009F44DC004E010E00E948D030091580371
:10435000043128F403E010E00E948D030CC00091AA
:104360005803043140F000915803083220F402E071
:1043700010E00E948D0308E010E00E948D03009180
:10438000F401003511F446DF25C00091F401003638
:1043900021F00091F401003419F40E948F171AC023
:1043A0000091F401013C21F00091F401023C11F470
:1043B00039D810C00091F401013D21F00091F401C1
:1043C000023D41F40091F3011091DE00011739F430
:1043D0000E94D61100E0009358030093BE04089594
:1043E000002311F0949A08959498089500E00AB972
:1043F00000E00BB906E000BD07E109B900E000BD2F
:1044000008E90AB900E0ECDF00E0009358030093EC
:1044100057030093BE040093BF0400E010E0E0ECFB
:10442000F4E0008311830895FA93EA936A935A9310
:104430004A933A932A931A930A936FB75F9B73C078
:104440000CB11091BE04123008F06DC00E34B1F4FE
:104450001091BE04113061F410915803153020F40E
:1044600010E0109358030AC012E01093BE0406C077
:1044700010E01093580311E01093BE04E0ECF4E058
:1044800040815181542F40E0202F30E0240F351F10
:10449000E0ECF4E020833183E0ECF4E02081318132
:1044A0002D351EE5310771F40EE52091580330E0FB
:1044B000F901E151FE4F0083E8E5F3E00081039547
:1044C000008324C0E0ECF4E0208131812D341EE52E
:1044D000310771F40EE42091580330E0F901E15105
:1044E000FE4F0083E8E5F3E00081039500830EC0F2
:1044F0000E3561F02091580330E0F901E151FE4F93
:104500000083E8E5F3E000810395008300E0009379
:10451000BF0400915803043B30F000E000935803BF
:1045200000E00093BE046FBF099119912991399160
:10453000499159916991E991F99118950FE90DBF48
:1045400000E00EBFC0E8D0E00E94EA23002311F093
:104550000E94FA230E941C040E9414240C94142428
:104560000024E8E0EA9532F0001F001C0416D0F3A6
:10457000041AF8CF001F402D00950895002411243F
:104580000030010741F01695079510F4040E151E32
:10459000440F551FF5CF002D112D0895002411242F
:1045A000EFE0001F111F001C111C0416150610F06F
:1045B000041A150AEA95AAF7001F111F402D512D64
:1045C0000095109508955195419550400895FF2705
:1045D000552312F4F160F7DF112312F4F09507D0A0
:1045E0000E94CE22F0FD03D0F1FDEDCF089511958C
:1045F00001951040089530952095109501951F4F15
:104600002F4F3F4F089570956095509541955F4F9E
:104610006F4F7F4F08950024112422243324E02F6C
:10462000E12BE22BE32B71F0369527951795079533
:1046300020F4040E151E261E371E440F551F661F3C
:10464000771FEDCF002D112D222D332D089500243D
:10465000112422243324E0E2EA9592F0001F111F76
:10466000221F331F001C111C221C331C04161506AC
:104670002606370688F3041A150A260A370AECCFED
:10468000001F111F221F331F402D512D622D732D2E
:1046900000951095209530950895FF2777231AF4FB
:1046A000F1600E94032333231AF4F0950E94FB2249
:1046B0000E942723F69510F40E94FB22F69510F431
:1046C0000C94032308955FD0702D5DD0602D5BD0D6
:1046D000502D59D0402D57D0102C01FA54D0202CF9
:1046E00052D0302C0895F5DF041B10E003C0EFDF3B
:1046F000041B150B20E030E005C0E5DF041B150BA3
:10470000260B370BE0F010FC1DC03DD0402D3BD0F8
:10471000E00FF11F0417100540E02407340778F478
:1047200046F4C895002D0024E22DF32DE01BF0097E
:104730000994E00FF11F27D0202C25D0302CE22D3A
:10474000F32D099411F4BEF7ECCF31960EF03196AB
:1047500050E060E070E017D0402D4B3F68F079F3F7
:104760004F3F41F04E3F21F00ED0702D0CD0602D08
:104770000AD0502D08D0402D041B150B260B370BEB
:1047800011F3E8F2E2CFC89531960895DA92CA9211
:10479000BA92AA929A928A927A926A925A924A9279
:1047A000BA93AA939A938A930895DD84CC84BB84A8
:1047B000AA84998488847F806E805D804C80BB81D0
:1047C000AA8199818881F0E00FB6F894CE0FDF1F9F
:1047D0000FBE089501E0089520E002D0E9F70895A2
:1047E0002D9301501040202F212B08952591F8DFA3
:1047F000E9F708958EE298E4FC0105911491FC011B
:104800003296A591B491FC01349625913491422FB2
:10481000432B19F0F901EADF01C0DEDF069618E448
:104820008A33910748F3089500008895FECF140459
:10483000AE0000000E00A0003A4847534D5F4C54B4
:084840004531393032313300FB
:00000001FF
