:020000020000FC
:100000000C94A1221895189518951895189518957F
:100010001895189518951895189518951895189578
:100020001895189518951895189518950C943303EC
:10003000189518950C9417221895189518951895D9
:100040001895189518951895189518951895189548
:1000500018951895189518950102030405060700D0
:1000600000311262245336C448F55AA66C977E8834
:1000700091B983EAB5DBA74CD97DCB2EFD1FEF00EC
:10008000002110422063308440A550C660E770080C
:100090008129914AA16BB18CC1ADD1CEE1EFF1D0F4
:1000A00007D007D007D007D007D007D007D007D890
:1000B000DDE2E7ECF1F6FB00050A0F14191E232818
:1000C0002D32373C41464B50555A0000000000008D
:1000D0000000000000000000000000000000000020
:1000E0000000000000000000000000000000000010
:1000F0000000000000000000000000000000000000
:1001000000000000000000000000000000000000EF
:1001100000000000000000000000000000000000DF
:1001200000000000000000000000000000000000CF
:10013000000000000000280029002C002D00FFFF17
:10014000FFFF00000107080001070C06010710006F
:100150000100110001001800010019000100200039
:1001600001072100010728000107290001072400D9
:100170000107250001072C0001072D00010702706F
:10018000010703700107D0000100D1000100D80071
:100190000100D90001005000020752000207600070
:1001A0000207620002070080010001800100048054
:1001B00001000580010045800100868002078880DB
:1001C00002078E80020790800207BC8002077680BB
:1001D000020728800107C6800107188001071980DF
:1001E00001071C8001071D80010700F00AFF01F0D4
:1001F0001EFF02F0010703F0010717F00AFF18F0D5
:10020000020719F014FF36F0020830F0020832F04D
:10021000020837F0020831F0020833F0020835F026
:10022000020834F0020852F3010753F30107FFFFFD
:10023000FFFF00000C0810008606BB06C706EE068E
:100240000E071D0735075107600778078E079D07C2
:10025000B507D107E007F80700010002150D00CD32
:1002600010FC104F1181110215B311091202150271
:10027000155C12C2122813361400F000019516C83E
:100280001601FA16012D17014C17145B17018E1772
:1002900001BC1717EF1701EF1701EF1701EF170157
:1002A000EF1701EF1701EF1701EF17093C18FE03D5
:1002B00010761802881601B018FB000001141944CA
:1002C0001901A41907741901D41907511A01B41A94
:1002D00007171B017A1B077B1D01B21D03571E0167
:1002E0008E1E03E91D01201E03C51E01FC1E2333C3
:1002F0001F02331F0E331F02331F6EDD1B01091C4B
:1003000007351C01611CFE0533041AFE69F68D1CBD
:1003100001041DFE0FFDBB1F01C51F03CF1F01D927
:100320001F13B02001BA2003C420010B190BA62013
:100330001DE31F11ED1F208320100620021F200641
:1003400038200251202C6A200A9C20FB00E006B9CC
:1003500000E000935F0300915F030F70006407B932
:1003600000E808B906EC06B90895392F282F109136
:10037000AE00101731F0102F1F70106417B90093E2
:10038000AE0006EC06B980E090E0369B07C001960F
:10039000893E03E09007C8F300E007C004B115B13F
:1003A000E0E6F3E00083118301E0822F932F0895AC
:1003B0008A93E8E5F0E00091B00010E0E00FF11F53
:1003C00004910050085008F066C000E010E0E8E535
:1003D000F0E02091B00030E0E20FF31F249130E014
:1003E000220F331FF901E559FE4F0083118380E08E
:1003F0002CC000E010E0003024E0120710F000E014
:1004000010E0E8E5F0E02091B00030E0E20FF31FEB
:10041000249130E0220F331FF901E559FE4F20816E
:1004200031812017310780F4E8E5F0E02091B00039
:1004300030E0E20FF31F249130E0220F331FF90167
:10044000E559FE4F0083118383958E3180F4E8E5F2
:10045000F0E00091B00010E0E00FF11F049185DFA3
:10046000002339F2E0E6F3E000811181C4CFE8E532
:10047000F0E00091B00010E0E00FF11F04910E9445
:100480001208E0EBF0E0008103950083083018F0DB
:1004900000E00093B000899108952697969A959A66
:1004A0009798402F50E0542F40E0550F550F550FAF
:1004B000550F420F531F00E006C095989698440FC1
:1004C000551F969A0395003128F4152F17FFF5CF85
:1004D000959AF4CF969A959A979A039503952696AE
:1004E00008959A93F82F802F969A959A9798A90134
:1004F00060E070E07695762F7795652F6795542F9D
:10050000579540E047958A019B0141E752E060E042
:1005100070E00E942A23A801B90190E0982F80E0A2
:10052000990F990F990F990F2FEF33E0242335235B
:10053000220F331F220F331F280F391F00E006C080
:1005400095989698220F331F969A0395003128F4B8
:10055000132F17FFF5CF959AF4CF969A959A979AFD
:10056000039503958F2F99910895229720E030E00D
:1005700008E093DF20E030E009E08FDF2296089565
:10058000979A969A959AF1DF089500911A0100239F
:1005900011F4929801C0929A0AE010E00E94EB02D6
:1005A0000AE010E00E94EB0200911701002311F411
:1005B000939801C0939A0AE010E00E94EB0200E0D9
:1005C00000931C0100911C01002311F4AB98AA9820
:1005D0000E947D0508959A938A93E0E0F0E009C0B7
:1005E000019601970196883522E09207C8F3A895F5
:1005F0003196E017F10718F480E090E0F4CF89918C
:100600009991089508E101BD00E001BD0895A89504
:1006100008E101BD0EE001BD089504E003BF01EF54
:1006200002BF01E009BF0895EDDF00E00BBB01E070
:100630000ABB00E008BB0FEF07BB00E005BB0FEFF4
:1006400004BB00E002BB0EEF01BB00E005BF0E944F
:10065000F9210E949F0C0E94A6010E94C002DDDFCA
:10066000D6DF78940895FA93EA932A931A930A931B
:100670002FB701EF02BFE1EBF0E0008103950083AB
:10068000E7EBF0E0008111810F5F1F4F00831183C2
:100690000091B100093190F000E00093B100E2EB6D
:1006A000F0E0008103950083E1E7F4E00081039529
:1006B0000083093218F000E0009370042FBF099105
:1006C00019912991E991F99118958A93ADDF00E08C
:1006D00000934D0100E000934E0100E000934F01B4
:1006E00000E00093500100E00093510100E010E0B1
:1006F000E7EBF0E00083118380E006C020E030E00B
:10070000082F0E94710283958830C0F30E94C502B1
:10071000899108952197F89400E213E05CDF0EEED2
:100720000093B40004E312E1E5EBF0E000831183F1
:10073000CCDF0EEE0093B4000CC0C59A0E949F213E
:1007400000916203013029F40E947D0500E00093CE
:1007500062030091B2000630B8F0A89500E0009363
:10076000B2000091B400023519F30091B4000934CD
:10077000F9F20091B400023421F00091B400053583
:1007800009F4FFCF0E94D80100911D010230A9F6A3
:10079000E7EBF0E020813181243F01E0300709F4EC
:1007A000C59AE7EBF0E020813181283E03E0300775
:1007B00028F2C59800E010E0E7EBF0E00083118339
:1007C000BDCF9A938A93A8010024112400E02AC087
:1007D000B001672F70E0362F10E0FA01E00FF11F33
:1007E00060816327EFE5F0E0862F82958F7090E0BF
:1007F000880F991FE80FF91F259034903197EFE784
:10080000F0E070E06F707070660F771FE60FF71FF3
:1008100065917491319762257325102C002406266A
:10082000172603950217A0F28001899199910895E6
:10083000392F482F00E001C003950B31F0F42091CF
:100840004A0110E0F801ED59FC4F108121176CF0BE
:1008500010914A01802F90E00196FC01ED59FC4F68
:100860002081121714F4039509C010917D03209183
:100870004A0112170CF70AE101C000E0842F932F00
:100880000895D6DF10915F04019F0091220120910D
:100890002401200F102C110C110802E0000E00E0C2
:1008A000101EF001E956FC4F1081120F103220F09B
:1008B000103810F41FE103C0103808F010E0110FD9
:1008C0001F73AF9800E001C003950530E8F320E006
:1008D00005C003950530E8F3110F2395263098F4F1
:1008E000AC9800E001C003950530E8F315FB16F461
:1008F000AD9A01C0AD9800E001C003950530E8F362
:10090000AC9A00E0E7CFAC9800E001C00395053059
:10091000E8F3AF9A00E001C003950233E8F3AF9823
:10092000089586DF10915F04019F009123012091BB
:100930002501200F102C110C110803E0000E00E01F
:10094000101EF001E956FC4F1081120F103220F0FA
:10095000103810F41FE103C0103808F010E0110F38
:100960001F73C39800E001C003950530E8F320E051
:1009700005C003950530E8F3110F2395263098F450
:10098000AC9800E001C003950530E8F315FB16F4C0
:10099000AD9A01C0AD9800E001C003950530E8F3C1
:1009A000AC9A00E0E7CFAC9800E001C003950530B9
:1009B000E8F3C39A00E001C003950233E8F3C3985B
:1009C000089536DF10915F04019F10911E01009180
:1009D0002001010F102C110C1108F001E956FC4FF9
:1009E0001081100F103220F0103810F41FE103C0F6
:1009F000103808F010E0110F1F73AE9800E001C02E
:100A000003950530E8F320E005C003950530E8F3D1
:100A1000110F2395263098F4AC9800E001C003959F
:100A20000530E8F315FB16F4AD9A01C0AD9800E06F
:100A300001C003950530E8F3AC9A00E0E7CFAC982D
:100A400000E001C003950530E8F3AE9A00E001C074
:100A500003950233E8F3AE980895EADE10915F043F
:100A6000019F00911F0120912101200F102C110CDA
:100A7000110801E0000E00E0101EF001E956FC4FE5
:100A80001081120F103220F0103810F41FE103C053
:100A9000103808F010E0110F1F73C49800E001C077
:100AA00003950530E8F320E005C003950530E8F331
:100AB000110F2395263098F4AC9800E001C00395FF
:100AC0000530E8F315FB16F4AD9A01C0AD9800E0CF
:100AD00001C003950530E8F3AC9A00E0E7CFAC988D
:100AE00000E001C003950530E8F3C49A00E001C0BE
:100AF00003950233E8F3C49808950E94D3232897FE
:100B000000915E01013009F4C0C000914D01013037
:100B100009F4BBC08DDE10915F04019F802DB1DE12
:100B200000DF4FDF9ADF00911901002309F047C071
:100B300000911D01023079F5D898C0980AE010E0C4
:100B40000E94EB02C19A0AE010E00E94EB02C29AF6
:100B50000AE010E00E94EB0200911A01002311F458
:100B6000929801C0929A0AE010E00E94EB02009174
:100B70001701002311F4939801C0939A0AE010E042
:100B80000E94EB0200911C010023C9F4AB98AA98C3
:100B9000A398A29814C0C198C2980AE010E00E94DD
:100BA000EB02C09A0AE010E00E94EB02D89A0AE039
:100BB00010E00E94EB02AB98AA98A398A29800E0DC
:100BC00010E080E090E044245524A0E0B0E02091C3
:100BD0001701213051F4E7E1F1E025893689200F32
:100BE000311F01E00E94710205C020E030E001E009
:100BF0000E94710200911A01013051F4E7E1F1E025
:100C000023893489240D351D00E00E94710205C03E
:100C100020E030E000E00E94710200911C010230EF
:100C200079F4E7E1F1E02789308D280F391F02E0E0
:100C30000E94710220E030E003E00E94710225C0B2
:100C400000911C01013079F420E030E002E00E94C4
:100C50007102E7E1F1E0218D328D2A0F3B1F03E0A5
:100C60000E94710212C0E7E1F1E02789308D280F60
:100C7000391F02E00E947102E7E1F1E0218D328D1F
:100C80002A0F3B1F03E00E9471022896E6E00C94B5
:100C9000E42310E0000F111FF801E559FE4F008119
:100CA000118145E050E00E94C12208950E94D123A5
:100CB00000912601102F110F110B4AE050E00E9405
:100CC000C122380100912701102F110F110B4AE0AA
:100CD00050E00E94C122280100912801102F110F1D
:100CE000110B4AE050E00E94C122D8010091290175
:100CF000102F110F110B4AE050E00E94C122C801D1
:100D000000916001E2E3F2E00C94762300914A0145
:100D1000003524F001E00093600181C1E7E1F1E0DA
:100D200007A110A50615170524F004E00093600143
:100D300076C1E7E1F1E001A512A50415150524F03F
:100D400007E0009360016BC1E7E1F1E003A514A5A2
:100D50000A171B0724F00AE00093600160C1E7E175
:100D6000F1E005A516A5081719070CF458C10DE008
:100D70000093600154C100914A01003524F002E063
:100D8000009360014CC100E00093600148C10091F4
:100D90004A010035FCF003E0009360019398AA98A3
:100DA0009298AB9820E030E001E00E94710220E0D0
:100DB00030E002E00E94710220E030E000E00E949A
:100DC000710220E030E003E00E94710201E0009334
:100DD0005E0125C100E00093600121C100914A013C
:100DE0000C330CF01CC100E00093600100915E0127
:100DF000013009F014C100E000935E010091170179
:100E0000002311F4939801C0939A00911A010023D2
:100E100011F4AA9801C0AA9A70DE01C1E7E1F1E0DD
:100E200007A110A50615170524F005E00093600141
:100E3000F6C000E000936001F2C0E7E1F1E007A135
:100E400010A5061517056CF006E00093600100E0A0
:100E500010E0E3E6F1E00083118301E000934E012E
:100E6000DEC000E000936001DAC0A3E6B1E0ED91DE
:100E7000FC913196FC93EE937F9708F4D0C000E08C
:100E80000093600100914E01013009F0C8C000E0FC
:100E900000934E0100911701002309F4C0C0939AFA
:100EA000BEC0E7E1F1E001A512A50415150524F087
:100EB00008E000936001B3C000E000936001AFC0A0
:100EC000E7E1F1E001A512A5041515056CF009E0B4
:100ED0000093600100E010E0E5E6F1E0008311839B
:100EE00001E000934F019BC000E00093600197C0B8
:100EF000A5E6B1E0ED91FC913196FC93EE937F97DE
:100F000008F48DC000E00093600100914F010130B2
:100F100009F085C000E000934F0181C0E7E1F1E0F6
:100F200003A514A50A171B0724F00BE0009360012A
:100F300076C000E00093600172C0E7E1F1E003A534
:100F400014A50A171B076CF00CE00093600100E089
:100F500010E0E7E6F1E00083118301E00093500127
:100F60005EC000E0009360015AC0A7E6B1E0ED91D9
:100F7000FC913196FC93EE937F9708F450C000E00B
:100F80000093600100915001013009F048C000E079
:100F90000093500100911A01002309F440C0929A75
:100FA0003EC0E7E1F1E005A516A50817190724F0F2
:100FB0000EE00093600133C000E0009360012FC099
:100FC000E7E1F1E005A516A5081719076CF00FE099
:100FD0000093600100E010E0E9E6F1E00083118396
:100FE00001E0009351011BC000E00093600117C0B5
:100FF000A9E6B1E0ED91FC913196FC93EE937F97D9
:1010000070F000E00093600100915101013039F46B
:1010100000E00093510103C000E000936001E8E0AC
:101020000C94E2230E94D1232297802F082F31DED7
:10103000282F2A9509F46EC32A9509F45DC1225020
:1010400009F453C02A9509F45EC2225009F068C41D
:1010500020E030E048EE53E060E070E00E940E23B4
:1010600040E054E060E070E00E945023A801ECE50D
:10107000F1E0408351834AE050E060E070E00E947C
:101080005023025310402040304000934A01EDE0CD
:10109000F1E0008111814AE050E00E94EA22E7E19C
:1010A000F1E013A9100F13AB00914A011091AF00AA
:1010B000011709F435C4BCDB009395030091950337
:1010C00010919603011761F0009195030093960328
:1010D00001E00093620300915E01002309F40DDD3D
:1010E00000914A010093AF001BC420E030E048EEBD
:1010F00053E060E070E00E940E2340E054E060E0C6
:1011000070E00E945023E7E1F1E003AF14AF0091DB
:101110006B04013009F500E000936B04E7E1F1E0B6
:1011200003AD14ADEBE7F1E0048315830BE711E0A9
:1011300020E00BC030E0F801E20FF31F408130E007
:10114000F901E955FD4F40832395283298F328E2B1
:1011500000E015E00E94671000916B04023009F076
:1011600088C000E000936B04E7E1F1E003AD14AD4B
:10117000EBE7F1E0008B118BEBE7F1E004811581E7
:10118000EBE7F1E0208931890217130731F0009174
:101190007B0110918701011769F401E010E0EBE792
:1011A000F1E0008F118F00E010E0EBE7F1E000A329
:1011B00011A349C000917B01102F110F110B209139
:1011C0008701322F330F330B021B130B212F220FFA
:1011D000220B322F48EE53E060E070E00E940E23B5
:1011E000EBE7F1E044815581EBE7F1E0608971893B
:1011F000461B570B60E070E00E945023EBE7F1E0E4
:10120000008F118FA0918701BA2FBB0FBB0BEBE7AB
:10121000F1E0008D118D212F220F220B322FEBE7F1
:10122000F1E04089518960E070E00E940E2348EEB1
:1012300053E060E070E00E945023A01BB10BEBE78D
:10124000F1E0A0A3B1A30BE711E020E00BC030E078
:10125000F801E20FF31F408130E0F901E955FD4F3D
:1012600040832395283298F328E200E015E00E949D
:101270006710EBE7F1E0008D118D212F220F220B7B
:10128000322FE7E1F1E043AD54AD60E070E00E9441
:101290000E2344E650E060E070E00E9450232801F5
:1012A0003901EBE7F1E000A111A14AE050E00E9412
:1012B000C122212F220F220B322F040D151D261DB6
:1012C000371DE7E1F1E007A310A7E3E0F1E00081BB
:1012D0001181E7E1F1E027A130A5200F311F27A3FD
:1012E00030A7E7E1F1E007A110A54AE050E00E9435
:1012F000EA220093460114C320E030E048EE53E0B8
:1013000060E070E00E940E2340E054E060E070E096
:101310000E945023E8E5F1E00083118300916E0400
:10132000013009F500E000936E04E8E5F1E000818A
:101330001181EBE7F1E0028713870BE711E020E072
:101340000BC030E0F801E20FF31F408130E0F901FB
:10135000E955FD4F40832395283298F328E200E0B9
:1013600015E00E94671000916E04023009F088C0F9
:1013700000E000936E04E8E5F1E000811181EBE705
:10138000F1E0068B178BEBE7F1E002851385EBE7C5
:10139000F1E0268937890217130731F000917E01A9
:1013A00010918A01011769F401E010E0EBE7F1E028
:1013B000068F178F00E010E0EBE7F1E006A317A31C
:1013C00049C000917E01102F110F110B20918A014D
:1013D000322F330F330B021B130B212F220F220B43
:1013E000322F48EE53E060E070E00E940E23EBE7FE
:1013F000F1E042855385EBE7F1E066897789461B8A
:10140000570B60E070E00E945023EBE7F1E0068F9D
:10141000178FA0918A01BA2FBB0FBB0BEBE7F1E04E
:10142000068D178D212F220F220B322FEBE7F1E0D3
:101430004689578960E070E00E940E2348EE53E031
:1014400060E070E00E945023A01BB10BEBE7F1E0DD
:10145000A6A3B7A30BE711E020E00BC030E0F80132
:10146000E20FF31F408130E0F901E955FD4F408361
:101470002395283298F328E200E015E00E946710D7
:10148000EBE7F1E0068D178D212F220F220B322F73
:10149000E8E5F1E04081518160E070E00E940E23B8
:1014A00044E650E060E070E00E94502328013901DA
:1014B000EBE7F1E006A117A14AE050E00E94C1224B
:1014C000212F220F220B322F040D151D261D371D33
:1014D000E7E1F1E005A716A7E9E0F1E0008111815D
:1014E000E7E1F1E025A536A5200F311F25A736A796
:1014F000E7E1F1E005A516A54AE050E00E94EA22E6
:10150000009349010DC220E030E048EE53E060E076
:1015100070E00E940E2340E054E060E070E00E9422
:101520005023E6E5F1E00083118300916D04013062
:1015300009F500E000936D04E6E5F1E0008111811A
:10154000EBE7F1E0008711870BE711E020E00BC02B
:1015500030E0F801E20FF31F408130E0F901E95576
:10156000FD4F40832395283298F328E200E015E0F0
:101570000E94671000916D04023009F088C000E0FD
:1015800000936D04E6E5F1E000811181EBE7F1E005
:10159000048B158BEBE7F1E000851185EBE7F1E0BB
:1015A000248935890217130731F000917D011091CC
:1015B0008901011769F401E010E0EBE7F1E0048F25
:1015C000158F00E010E0EBE7F1E004A315A349C09C
:1015D00000917D01102F110F110B20918901322FE5
:1015E000330F330B021B130B212F220F220B322F31
:1015F00048EE53E060E070E00E940E23EBE7F1E07C
:1016000040855185EBE7F1E064897589461B570BEE
:1016100060E070E00E945023EBE7F1E0048F158F4B
:10162000A0918901BA2FBB0FBB0BEBE7F1E0048D52
:10163000158D212F220F220B322FEBE7F1E0448989
:10164000558960E070E00E940E2348EE53E060E0B0
:1016500070E00E945023A01BB10BEBE7F1E0A4A3C4
:10166000B5A30BE711E020E00BC030E0F801E20F7A
:10167000F31F408130E0F901E955FD4F4083239588
:10168000283298F328E200E015E00E946710EBE7AB
:10169000F1E0048D158D212F220F220B322FE6E56C
:1016A000F1E04081518160E070E00E940E2344E649
:1016B00050E060E070E00E94502328013901EBE720
:1016C000F1E004A115A14AE050E00E94C122212FBF
:1016D000220F220B322F040D151D261D371DE7E1A9
:1016E000F1E003A714A7E7E0F1E000811181E7E151
:1016F000F1E023A534A5200F311F23A734A7E7E18C
:10170000F1E003A514A54AE050E00E94EA2200930C
:10171000480106C120E030E048EE53E060E070E0B0
:101720000E940E2340E054E060E070E00E945023ED
:10173000E4E5F1E00083118300916C04013009F5C8
:1017400000E000936C04E4E5F1E000811181EBE737
:10175000F1E0068317830BE711E020E00BC030E0D7
:10176000F801E20FF31F408130E0F901E955FD4F28
:1017700040832395283298F328E200E015E00E9488
:10178000671000916C04023009F088C000E00093FB
:101790006C04E4E5F1E000811181EBE7F1E0028BFC
:1017A000138BEBE7F1E006811781EBE7F1E022898B
:1017B00033890217130731F000917C0110918801E1
:1017C000011769F401E010E0EBE7F1E0028F138FFD
:1017D00000E010E0EBE7F1E002A313A349C00091A1
:1017E0007C01102F110F110B20918801322F330F24
:1017F000330B021B130B212F220F220B322F48EE2B
:1018000053E060E070E00E940E23EBE7F1E04681D8
:101810005781EBE7F1E062897389461B570B60E063
:1018200070E00E945023EBE7F1E0028F138FA0914C
:101830008801BA2FBB0FBB0BEBE7F1E0028D138DD4
:10184000212F220F220B322FEBE7F1E0428953893F
:1018500060E070E00E940E2348EE53E060E070E02C
:101860000E945023A01BB10BEBE7F1E0A2A3B3A3AE
:101870000BE711E020E00BC030E0F801E20FF31FAE
:10188000408130E0F901E955FD4F4083239528322E
:1018900098F328E200E015E00E946710EBE7F1E022
:1018A000028D138D212F220F220B322FE4E5F1E060
:1018B0004081518160E070E00E940E2344E650E0D8
:1018C00060E070E00E94502328013901EBE7F1E06D
:1018D00002A113A14AE050E00E94C122212F220F51
:1018E000220B322F040D151D261D371DE7E1F1E0F7
:1018F00001A712A7E5E0F1E000811181E7E1F1E045
:1019000021A532A5200F311F21A732A7E7E1F1E081
:1019100001A512A54AE050E00E94EA220093470187
:10192000813041F0823031F0843021F0853011F087
:10193000873009F4BBD92296E8E00C94E2239A930D
:101940008A9300E00093B2000CE211E00E94EB02E7
:101950002EE500E010E00E9428100023A9F000917D
:10196000B400093489F029EB30E000E00E3570F561
:1019700010E0F801E955FD4F408110E0F901E00F5A
:10198000F11F40830395F2CF01E00093E10001E0F5
:101990000093E20004EF11E0E5E1F1E00083118340
:1019A00004EF11E0E3E1F1E00083118300E00CC0FB
:1019B00020E030E0402F50E0440F551FFA01ED5F6A
:1019C000FE4F208331830395083090F326E300E037
:1019D00012E00E942810002399F00091B40009340D
:1019E00079F000E00B31E0F410E0F801E955FD4F2B
:1019F000208110E0F801ED59FC4F20830395F2CFD0
:101A000000E00CC0EFEAF0E010E0E00FF11F2491DD
:101A100010E0F801ED59FC4F208303950B3190F352
:101A200000E007C020E010E0F801E956FC4F2083F9
:101A30000395083CB8F328EC00E013E00E9428105E
:101A40000023A1F00091B400093481F000E0083CCB
:101A500008F055C010E0F801E955FD4F208110E075
:101A6000F801E956FC4F20830395F1CF00E044C014
:101A7000EAECF0E010E0E00FF11F4491202F30E09D
:101A8000220F331F220F331FF901E956FC4F408309
:101A9000E5EEF0E010E0E00FF11F2491802F90E0E0
:101AA000880F991F880F991F0196FC01E956FC4F7A
:101AB0002083E0E0F1E010E0E00FF11F2491802F9F
:101AC00090E0880F991F880F991F0296FC01E95634
:101AD000FC4F2083EBE1F1E010E0E00FF11F2491D7
:101AE000802F90E0880F991F880F991F0396FC01A3
:101AF000E956FC4F208303950B3108F4B9CF2CE352
:101B000000E011E00E9428100023B1F00091B40021
:101B1000093491F027E131E000E00C3308F068C0AF
:101B200010E0F801E955FD4F408110E0F901E00FA8
:101B3000F11F40830395F1CF01E00093170100E00E
:101B40000093180100E00093190101E000931A01CD
:101B500000E000931B0102E000931D0100E00093F0
:101B60001C0100E007C020E010E0F801E95EFE4F34
:101B7000238703950430B8F300E007C020E010E0AD
:101B8000F801E95EFE4F278303950430B8F300E2C5
:101B90000093260100E20093270100E20093280150
:101BA00000E2009329010EE100933A010EE1009357
:101BB0003B010EE100933C010EE100933D0100E08A
:101BC00015C0EFE9F0E0202F30E0220F331FE20FC5
:101BD000F31F459154913197202F30E0220F331F8E
:101BE000F901E95EFE4F438B548B0395083048F3AF
:101BF00028E200E015E00E9428100023B1F00091D7
:101C0000B400093491F02BE731E000E0083208F02D
:101C100049C010E0F801E955FD4F408110E0F9019D
:101C2000E00FF11F40830395F1CF00E039C020E0C1
:101C300010E0F801E558FE4F208320E030E0402F0F
:101C400050E0440F551FFA01E558FE4F24833583B9
:101C500020E010E0F801E558FE4F248720E030E056
:101C6000402F50E0440F551FFA01E558FE4F208BDE
:101C7000318B24E130E0402F50E0440F551FFA0132
:101C8000E558FE4F208F318F20EF3FEF402F50E07F
:101C9000440F551FFA01E558FE4F20A331A30395C9
:101CA000043028F228E200E415E00E942810002306
:101CB000B1F00091B400093491F023EA31E000E082
:101CC000083208F049C010E0F801E955FD4F4081A5
:101CD00010E0F901E00FF11F40830395F1CF00E020
:101CE00039C020E010E0F801ED55FE4F208320E0E0
:101CF00030E0402F50E0440F551FFA01ED55FE4FE4
:101D00002483358320E010E0F801ED55FE4F248751
:101D100020E030E0402F50E0440F551FFA01ED5510
:101D2000FE4F208B318B22E130E0402F50E0440FFA
:101D3000551FFA01ED55FE4F208F318F25EB3FEFF8
:101D4000402F50E0440F551FFA01ED55FE4F20A3E0
:101D500031A30395043028F228E200E815E00E9440
:101D600028100023B1F00091B400093491F02BEC5D
:101D700031E000E0083208F049C010E0F801E95510
:101D8000FD4F408110E0F901E00FF11F4083039502
:101D9000F1CF00E039C020E010E0F801E553FE4F3C
:101DA000208320E030E0402F50E0440F551FFA011F
:101DB000E553FE4F2483358320E010E0F801E5531E
:101DC000FE4F248720E030E0402F50E0440F551FA5
:101DD000FA01E553FE4F208B318B21E030E0402F9C
:101DE00050E0440F551FFA01E553FE4F208F318F0D
:101DF00020E030E0402F50E0440F551FFA01E5533A
:101E0000FE4F20A331A30395043028F200E00BC05D
:101E100010E0F801E056FF4F208110E0F801E75490
:101E2000FF4F22A703950A3098F300E00093EE00DD
:101E300001E00093ED0000E000934D0100E000930D
:101E40004E0100E000934F0100E00093500100E0DC
:101E50000093510100E00093170100E00093180186
:101E600000E00093190100E000931A0100E00093E4
:101E70001B0102E000931D0100E000931C010EE134
:101E800000934A0100E00093B30000E00093B0002B
:101E900005C0E3EBF0E0008103950083E2E4F1E0AC
:101EA0000091B30010E0000F111F000F111FE00F91
:101EB000F11F2591349131972F3F0FEF300749F7EC
:101EC0000E94A01000E089919991089501E001C05D
:101ED0000A950023E9F70895002311F0A99A0895BF
:101EE000A9980895002311F0A89A0895A898089534
:101EF000A09AA19A01E0F6DF01E0EEDF00E0ECDF5E
:101F000000E0F0DFE3DF0895A09AA19A00E0E4DFAB
:101F100001E0E8DFDBDF01E0DFDFD8DF01E0E2DF67
:101F2000D5DF08959A938A93902FA09AA19A80E082
:101F300009C000E0D1DFCADF01E0D4DF00E0D2DF7A
:101F4000990F8395883028F497FB9EF701E0C4DF52
:101F5000F2CF8991999108959A938A9390E0A09AEB
:101F6000A19880E00CC001E0BDDFB0DF990F999B24
:101F700002C0916001E000E0B5DFA8DF8395883002
:101F800090F3092F8991999108958A93A09AA19825
:101F900001E0A2DF9BDF01E0A5DF999B02C081E0A9
:101FA00001C080E000E09EDF91DFA19A8FDF082F63
:101FB000899108958A932297A8950883198386DFCB
:101FC000A3DF96DF0981000F006AACDFDEDF088146
:101FD000A9DFDBDF8DDF0981000F016AA3DFD5DF19
:101FE000BBDF802F91DF082F2296899108959A9365
:101FF0008A932297922F80E008831983A89502C0C4
:10200000839564DF853028F07FDF60DF80E000E0CB
:102010001BC05CDF6DDF0981000F006A83DFB5DF65
:10202000002371F708817EDFB0DF002319F083956C
:102030004DDFE8CF092F76DFA8DF002319F0839565
:1020400045DFE0CF61DF01E0229689919991089503
:102050000E94D3232801822F00E009BFF894A0E05A
:102060000DC00A2F10E0040D151D0C5F1F4FA2DFDD
:10207000B0E0FD01E955FD4F0083A395E82FF0E0A6
:102080003196B0E0EA17FB0764F7282F07EA12E061
:102090000E94E10390E0FC01E955FD4F408150E0D2
:1020A00090E00196FC01E955FD4F308120E0240FBE
:1020B000351F41E049BF78940217130711F4012B33
:1020C00011F400E001C001E0E6E00C94E4230E947A
:1020D000D323D801822F282F07EA12E00E94E103C0
:1020E000202F90E0FC01E955FD4F2083012F10E0E7
:1020F000202F082F10E00F5F1F4FF801E955FD4F0B
:10210000208300E009BFF89444240DC0042D10E0A2
:102110000A0F1B1F0C5F1F4F5524F201E955FD4F9D
:10212000208165DF4394E82FF0E031965524E415D3
:10213000F50564F701E009BF7894E6E00C94E42328
:1021400000E000935F0405C0EFE5F4E00081039533
:102150000083E6E3F1E000915F04102F110F110BF3
:10216000000F111FE00FF11F2591349131972F3F80
:102170000FEF300749F708950E94CB236624882487
:102180009924B0E0C090FB01DD24A091FA018AE01F
:102190008601E8E5F2E00C947A23ABE10091F801C6
:1021A000023DB9F490E00EC0082F10E0F801ED50A8
:1021B000FE4F2081092F10E0F801ED59FC4F2083DC
:1021C000839593959A1780F3B1E001E00093620341
:1021D0005DC390E09A1708F059C3092F10E0F80189
:1021E000ED59FC4F2081082F10E0F801ED50FE4F13
:1021F000208383959395EECFA4E00091F801023DF2
:1022000019F590E01DC0082F10E0F801ED50FE4FC9
:10221000408150E0082F10E00F5F1F4FF801ED5094
:10222000FE4F308120E0240F351F092F10E0000FF2
:10223000111FF801ED59FC4F268F378F8E5F939554
:102240009A1708F3B1E022C390E09A1708F01EC372
:10225000092F10E0000F111FF801ED59FC4F068DFA
:10226000178D202F082F10E0F801ED50FE4F20832E
:102270008395092F10E0000F111FF801ED59FC4F55
:10228000068D178D012F110F110B202F082F10E035
:10229000F801ED50FE4F208383959395D6CF0091A2
:1022A000F801013D09F0F2C290E0092F10E0209101
:1022B0005F04322F330F330B021713070CF0E6C203
:1022C000E6E3F1E0092F10E0000F111FE00FF11F0E
:1022D000A590B49031972A2D082F10E0F801ED5009
:1022E000FE4F208383958501012F110F110B202FA5
:1022F000082F10E0F801ED50FE4F20838395939551
:10230000D4CF0091F801013D09F0C0C290E0092F3F
:1023100010E020916A04322F330F330B021713079A
:102320000CF0B4C2E0E4F1E0092F10E0000F111F3F
:10233000E00FF11FA590B49031972A2D082F10E0DF
:10234000F801ED50FE4F208383958501012F110F79
:10235000110B202F082F10E0F801ED50FE4F2083C5
:1023600083959395D4CF90E0FC01ED50FE4F008112
:102370000A9510915F04019FA02D83950091F801AB
:10238000023D41F590E012C0082F10E0F801ED5039
:10239000FE4F40812A2F30E0092F10E0020F131F5B
:1023A000F801E956FC4F408383959395092F10E07F
:1023B00020915F04322F330F330B0217130724F3DE
:1023C0000091FD010B3109F061C2B1E001E0009321
:1023D00062035CC290E0092F10E020915F04322F6D
:1023E000330F330B021713070CF050C22A2F30E0C3
:1023F000092F10E0020F131FF801E956FC4F20814E
:10240000082F10E0F801ED50FE4F2083839593953F
:10241000E2CF90E0FC01ED50FE4F00810A95109153
:102420006A04019FA02D83950091F801023D29F5D2
:1024300090E012C0082F10E0F801ED50FE4F4081EF
:102440002A2F30E0092F10E0020F131FF801E05A85
:10245000FB4F408383959395092F10E020916A04E8
:10246000322F330F330B0217130724F30091FD01B2
:10247000043009F00BC2B1E009C290E0092F10E06E
:1024800020916A04322F330F330B021713070CF01D
:10249000FDC12A2F30E0092F10E0020F131FF801B1
:1024A000E05AFB4F2081082F10E0F801ED50FE4F5D
:1024B000208383959395E2CF0091F801023D09F0C6
:1024C000E5C1082F10E0F801ED50FE4F208130E00B
:1024D000082F10E00F5F1F4FF801ED50FE4F908066
:1024E0008824820E931E082F10E00E5F1F4FF80104
:1024F000ED50FE4F608003E5801603EF9006E1F497
:10250000082F10E00D5F1F4FF801ED50FE4F2081A6
:10251000062D10E00F5F1F4FF801E558FE4F208396
:102520008C5F11E0772401E0600E00E0701EF30183
:10253000E559FB4F108320C002E5801603EF90069B
:10254000D9F4082F10E00D5F1F4FF801ED50FE4F3A
:102550002081062D10E001501040F801E558FE4F93
:1025600020838C5F11E077240FEF600E0FEF701E59
:10257000F301E559FB4F1083B1E005E010E00E9444
:10258000EB0284C10091F801023D09F07FC1082FE0
:1025900010E0F801ED50FE4F208130E0082F10E0F0
:1025A0000F5F1F4FF801ED50FE4F90808824820E80
:1025B000931E082F10E00E5F1F4FF801ED50FE4FE5
:1025C000608003E5801603EF9006E1F4082F10E029
:1025D0000D5F1F4FF801ED50FE4F2081062D10E0DA
:1025E0000F5F1F4FF801E558FE4F24878C5F12E004
:1025F000772401E0600E00E0701EF301E559FB4F07
:10260000108320C002E5801603EF9006D9F4082F4E
:1026100010E00D5F1F4FF801ED50FE4F2081062D99
:1026200010E001501040F801E558FE4F24878C5F00
:1026300012E077240FEF600E0FEF701EF301E559E3
:10264000FB4F1083B1E005E010E00E94EB021EC1D9
:102650000091F801013D09F019C1082F10E0F801BF
:10266000ED50FE4F208130E0082F10E00F5F1F4F2C
:10267000F801ED50FE4F90808824820E931E082FA3
:1026800010E00E5F1F4FF801ED50FE4F60808D5F30
:1026900003E5801603EF900609F06FC0062D10E0E9
:1026A0000F5F1F4FF801E558FE4F2081082F10E003
:1026B000F801ED50FE4F20838395062D10E00F5F4B
:1026C0001F4F000F111FF801E558FE4F04811581BF
:1026D000202F082F10E0F801ED50FE4F2083839546
:1026E000062D10E00F5F1F4F000F111FF801E55876
:1026F000FE4F04811581012F10E0202F082F10E0DC
:10270000F801ED50FE4F20838395062D10E00F5FFA
:102710001F4FF801E558FE4F2485082F10E0F801FF
:10272000ED50FE4F20838395062D10E00F5F1F4F65
:10273000000F111FF801E558FE4F00891189202F65
:10274000082F10E0F801ED50FE4F20838395062DF1
:1027500010E00F5F1F4F000F111FF801E558FE4FEB
:1027600000891189012F10E0202F082F10E0F801B7
:10277000ED50FE4F2083839574C002E5801603EF71
:10278000900609F06EC0062D10E001501040F801CF
:10279000E558FE4F2081082F10E0F801ED50FE4F64
:1027A00020838395062D10E001501040000F111F6B
:1027B000F801E558FE4F04811581202F082F10E005
:1027C000F801ED50FE4F20838395062D10E0015057
:1027D0001040000F111FF801E558FE4F04811581CC
:1027E000012F10E0202F082F10E0F801ED50FE4FD0
:1027F00020838395062D10E001501040F801E55824
:10280000FE4F2485082F10E0F801ED50FE4F208385
:102810008395062D10E001501040000F111FF801A4
:10282000E558FE4F00891189202F082F10E0F8018C
:10283000ED50FE4F20838395062D10E0015010408F
:10284000000F111FF801E558FE4F00891189012F73
:1028500010E0202F082F10E0F801ED50FE4F2083EC
:10286000839505E010E00E94EB0210C000E00093A9
:10287000F9010CE000935C0310E096010091F8016F
:102880000E943215F894E0E0F0E70995082F075010
:102890000093FA018D5F80935C0310E09601009134
:1028A000F8010E94321505E010E00E94EB02B13001
:1028B00009F0A8C003E0C01600E0D00648F403E623
:1028C000402E03E0502E96E3AA2402E0B02E41C031
:1028D00006E0C01600E0D00649F407E9402E03E008
:1028E000502E98ECAA2403E0B02E33C007E0C016A7
:1028F00000E0D00649F400E6402E04E0502E92E0BD
:10290000AA2404E0B02E25C00AE0C01600E0D006DC
:1029100029F00BE0C01600E0D006D9F403E58016DC
:1029200003EF900649F40BE7402E01E0502E98E2A9
:10293000AA2405E0B02E0DC002E5801603EF900634
:1029400041F40BE7402E01E0502E98E2AA2405E066
:10295000B02E03E0C01600E0D006E8F500E00BC0A2
:1029600010E0F801ED59FC4F208110E0F801E95525
:10297000FD4F208303950B3198F300E00430D0F530
:10298000202F30E0220F331FF901ED59FC4F268D27
:10299000378D12E0019F1BE1010E10E0111EF001C6
:1029A000E955FD4F2083202F30E0220F331FF9011E
:1029B000ED59FC4F268D378D232F330F330B12E04B
:1029C000019F1CE1010E10E0111EF001E955FD4FC1
:1029D00020830395D3CF00E00BC010E0F201E00F9D
:1029E000F11F208110E0F801E955FD4F2083039588
:1029F000091798F3292F85010E94671005E010E060
:102A00000E94EB02EEE00C94DC2301E00E94F32133
:102A100002E010E00E94EB02A89516C05D9B14C076
:102A200000915D0310E0F801E955FD4F00810CB9FC
:102A3000EDE5F3E000810395008300915D03043B25
:102A400018F000E000935D0300915D0310915E03B8
:102A5000011721F705E010E00E94EB0200E00E9460
:102A6000F32108952091F7012F3F49F42091F801B7
:102A7000203529F02091F801203409F0D1C0015C03
:102A800061F00A9569F00F5071F00A9579F00E56D1
:102A900021F0005111F0005161F41093F9010BC0C5
:102AA0001093F90108C01093F90105C01093F901C2
:102AB00002C01093F90120915C03245004EF11E04F
:102AC0000E94E103402F20915C0330E0235030400E
:102AD000F901ED50FE4F4083012F10E0202F0091AF
:102AE0005C0310E002501040F801ED50FE4F2083CF
:102AF00000915E03043B18F000E000935E0300E0E9
:102B000000935E0300935D030EE420915E0330E0CA
:102B1000F901E955FD4F0083EEE5F3E000810395EF
:102B2000008301E019C010E0F801ED50FE4F108164
:102B300020915E0330E0F901E955FD4F1083EEE589
:102B4000F3E010811395108310915E03143B18F08D
:102B500010E010935E03039510E020915C0330E0D9
:102B600021503040021713070CF045C010E0F80167
:102B7000ED50FE4F10811E34D9F41EE520915E0306
:102B800030E0F901E955FD4F1083EEE5F3E01081E7
:102B9000139510831DE420915E0330E0F901E9559F
:102BA000FD4F1083EEE5F3E0108113951083CCCF39
:102BB00010E0F801ED50FE4F10811E3509F0B3CF43
:102BC0001EE520915E0330E0F901E955FD4F1083C9
:102BD000EEE5F3E01081139510831DE520915E036F
:102BE00030E0F901E955FD4F1083EEE5F3E0108187
:102BF00013951083A9CF0EE420915E0330E0F90114
:102C0000E955FD4F0083EEE5F3E000810395008375
:102C100000915E03043B18F000E000935E03F5DED4
:102C200008959A938A9300917004023008F458C072
:102C30000091F3010E3409F04EC00091F40101300F
:102C400009F049C00091F9010F3F09F044C000911B
:102C5000F8010034F1F00091F5010F700230D9F560
:102C600000915C030B30B8F100915C0310E001505F
:102C70001040F801ED50FE4F00810E3461F50091D7
:102C8000F7010F3F31F00091F7011091E1000117BA
:102C900011F500915C0310E002501040F801ED5076
:102CA000FE4F308120E000915C0310E003501040A3
:102CB000F801ED50FE4F808190E0820F931F20912C
:102CC0005C03245004EF11E00E94E1038017910798
:102CD00011F401E006C000E000935C03009370046F
:102CE00000E08991999108950E94D3230091F70102
:102CF0001091E100011751F00091F7010F3F09F029
:102D000073C20091F801003409F06EC2A0E017C050
:102D10000091F801003649F022E00A2F10E0065F2A
:102D20001F4FF801ED50FE4F20830A2F10E0075F80
:102D30001F4FF801ED50FE4F00810D5FA00FB0E076
:102D400000915C0310E00A501040A017B1070CF08E
:102D500016C28A2F90E00896FC01ED50FE4F1081BC
:102D600000E08A2F90E00796FC01ED50FE4F408076
:102D70005524400E511E0A2F10E0075F1F4FF80127
:102D8000ED50FE4F80818201EAE7F2E00C947A2355
:102D90008A3008F08AE00091F8010036A9F400E0DA
:102DA000081718F610E02A2F30E0200F311F265F99
:102DB0003F4FF901ED50FE4F208110E0F801E7543C
:102DC000FF4F20830395ECCF00E0081708F0ADCF4C
:102DD00010E0F801E754FF4F408110E02A2F30E067
:102DE000200F311F265F3F4FF901ED50FE4F40830A
:102DF0000395EBCF8E3108F08EE10091F80100369B
:102E0000B1F400E0081708F090CF10E02A2F30E06E
:102E1000200F311F265F3F4FF901ED50FE4F2081FB
:102E200010E0F801E754FF4F22870395EBCF00E055
:102E3000081708F07ACF10E0F801E754FF4F4285F9
:102E400010E02A2F30E0200F311F265F3F4FF9019D
:102E5000ED50FE4F40830395EBCF0091F801003613
:102E600059F40A2F10E0065F1F4FF801ED50FE4F96
:102E700000810093E10059CF0091F801003409F07E
:102E800054CF2091E1000A2F10E0065F1F4FF80198
:102E9000ED50FE4F208349CF0091F801003609F430
:102EA00044CF22E00A2F10E0065F1F4FF801ED50DB
:102EB000FE4F20833ACF8A3008F08AE00091F80173
:102EC0000036B1F400E0081708F02FCFB0E0202F53
:102ED00030E02A0F3B1F265F3F4FF901ED50FE4FB8
:102EE000208110E0F801E754FF4F22A70395EBCFB4
:102EF00000E0081708F019CF10E0F801E754FF4F81
:102F000012A5B0E0202F30E02A0F3B1F265F3F4F75
:102F1000F901ED50FE4F10830395EBCF0091F801BE
:102F20000036A9F40A2F10E0065F1F4FF801ED509C
:102F3000FE4F00810093ED000A2F10E0055F1F4F48
:102F4000F801ED50FE4F00810093EE00EECE20918F
:102F5000ED000A2F10E0065F1F4FF801ED50FE4F05
:102F600020832091EE000A2F10E0055F1F4FF8012B
:102F7000ED50FE4F2083D9CE843108F084E10091DA
:102F8000F8010036B1F400E0081708F0CECEB0E04A
:102F9000202F30E02A0F3B1F265F3F4FF901ED50F5
:102FA000FE4F208110E0F801E754FF4F26AB039558
:102FB000EBCF00E0081708F0B8CE10E0F801E754B6
:102FC000FF4F16A9B0E0202F30E02A0F3B1F265FED
:102FD0003F4FF901ED50FE4F10830395EBCF0A2FC1
:102FE00010E0095F1F4FF801ED50FE4F00810053C4
:102FF0001091F8011036D9F48A2F90E00A96FC015E
:10300000ED50FE4F408150E08A2F90E00B96FC017E
:10301000ED50FE4F308120E0240F351F10E0000FEF
:10302000111FF801ED5FFE4F208331837ECE202FEC
:1030300030E0220F331FF901ED5FFE4F2081318117
:103040008A2F90E00A96FC01ED50FE4F208310E09D
:10305000000F111FF801ED5FFE4F00811181012F5C
:10306000110F110B202F0A2F10E0055F1F4FF801E1
:10307000ED50FE4F208359CE0091F8010036C9F47F
:103080000A2F10E0065F1F4FF801ED50FE4F208120
:1030900030E00A2F10E0055F1F4FF801ED50FE4FA2
:1030A000108100E0020F131FE5E1F1E000831183BE
:1030B0003CCEE5E1F1E000811181202F0A2F10E0E4
:1030C000065F1F4FF801ED50FE4F2083E5E1F1E070
:1030D00000811181012F10E0202F0A2F10E0055FE1
:1030E0001F4FF801ED50FE4F20831FCE0091F801D5
:1030F0000036C9F40A2F10E0065F1F4FF801ED50AB
:10310000FE4F208130E00A2F10E0055F1F4FF801CD
:10311000ED50FE4F108100E0020F131FE3E1F1E0DC
:103120000083118302CEE3E1F1E000811181202FC1
:103130000A2F10E0065F1F4FF801ED50FE4F20836D
:10314000E3E1F1E000811181012F10E0202F0A2F2F
:1031500010E0055F1F4FF801ED50FE4F2083E5CDD5
:103160000091F801003609F4E0CD22E00A2F10E0CA
:10317000065F1F4FF801ED50FE4F2083D6CD10E0C3
:1031800092010091F8016EDC0091F801003661F5C2
:1031900009EB10E0A0E00BC0B0E0F801EA0FFB1F64
:1031A0002081B0E0FD01E955FD4F2083A395AE35A8
:1031B00098F32EE500E010E00E94671007E111E0AF
:1031C000A0E00BC0B0E0F801EA0FFB1F2081B0E0E7
:1031D000FD01E955FD4F2083A395A83298F32CE318
:1031E00000E011E00E946710E6E00C94E4230E94E6
:1031F000C92344240091F7011091E100011711F057
:103200000C94092166240091F801013CB1F401E01D
:103210000093620312C000915101862D90E00A963E
:10322000FC01ED50FE4F0083862D90E00996FC01D5
:10323000ED50FE4F00810D5F600E772480915C039E
:1032400090E00A97681679060CF0A8C7862D90E0E2
:103250000896FC01ED50FE4F108100E0862D90E0B5
:103260000796FC01ED50FE4F80809924800E911E40
:10327000862D90E00996FC01ED50FE4F808184017F
:10328000EAEBF2E00C947A230091F801013CE9F4B6
:10329000813019F007E0402EC7CF862D90E00A96C6
:1032A000FC01ED50FE4F00810093170100911701C2
:1032B000013018F001E0009317010091170100237D
:1032C00011F49398B1CF939AAFCF813019F008E001
:1032D000402EAACF00911701862D90E00A96FC019E
:1032E000ED50FE4F0083A0CF0091F801013CE9F4BE
:1032F000813019F007E0402E97CF862D90E00A9696
:10330000FC01ED50FE4F008100931A0100911A015B
:10331000013018F001E000931A0100911A01002316
:1033200011F4929881CF929A7FCF813019F008E002
:10333000402E7ACF00911A01862D90E00A96FC016A
:10334000ED50FE4F008370CF0091F801013CE9F48D
:10335000813019F007E0402E67CF862D90E00A9665
:10336000FC01ED50FE4F00810093180100911801FF
:10337000013018F001E000931801009118010023BA
:1033800011F4AA9851CFAA9A4FCF813019F008E0D2
:10339000402E4ACF00911801862D90E00A96FC013C
:1033A000ED50FE4F008340CF0091F801013CE9F45D
:1033B000813019F007E0402E37CF862D90E00A9635
:1033C000FC01ED50FE4F008100931B0100911B0199
:1033D000013018F001E000931B0100911B01002354
:1033E00011F4AB9821CFAB9A1FCF813019F008E0D0
:1033F000402E1ACF00911B01862D90E00A96FC0109
:10340000ED50FE4F008310CF0091F801013CD1F543
:10341000813019F007E0402E07CF862D90E00A9604
:10342000FC01ED50FE4F008100931C0100911C0136
:10343000002329F4AB98AA98A398A298F5CE0091FE
:103440001C01013021F000911C01043049F4A39AC1
:10345000A29AAA980AE010E00E94EB02AB9AE4CE8E
:1034600000911C01023049F4A39AA29AAB980AE099
:1034700010E00E94EB02AA9AD7CEAB98AA98A39824
:10348000A298D2CE813019F008E0402ECDCE009126
:103490001C01862D90E00A96FC01ED50FE4F008342
:1034A000C3CE0091F801013C09F04FC0813019F002
:1034B00007E0402EB9CE862D90E00A96FC01ED5033
:1034C000FE4F008100933A0100913A010D332CF038
:1034D0000CE300933A0107E0402E00913A01102FCF
:1034E000110F110B212F312FEBE7F1E080A191A1FA
:1034F000A92FAA0FAA0BBA2F48EE53E060E070E0A4
:103500000E940E23680179018C019D0148EE53E071
:1035100060E070E00E940E23A801B90186019701C6
:10352000041B150B260B370BEBE7F1E0808D918D1B
:10353000A92FAA0FAA0BBA2FAC01BD010E945023DC
:10354000E7E1F1E0058B168B6FCE813019F008E0D2
:10355000402E6ACE00913A01862D90E00A96FC0139
:10356000ED50FE4F008360CE0091F801013C09F060
:103570004FC0813019F007E0402E56CE862D90E0E6
:103580000A96FC01ED50FE4F008100933B01009133
:103590003B010D332CF00CE300933B0107E0402E80
:1035A00000913B01102F110F110B212F312FEBE751
:1035B000F1E082A193A1A92FAA0FAA0BBA2F48EE7E
:1035C00053E060E070E00E940E23680179018C01F5
:1035D0009D0148EE53E060E070E00E940E23A801D8
:1035E000B90186019701041B150B260B370BEBE77E
:1035F000F1E0828D938DA92FAA0FAA0BBA2FAC01EF
:10360000BD010E945023E7E1F1E0078B108F0CCE43
:10361000813019F008E0402E07CE00913B01862D45
:1036200090E00A96FC01ED50FE4F0083FDCD009125
:10363000F801013C09F04FC0813019F007E0402E3D
:10364000F3CD862D90E00A96FC01ED50FE4F0081EF
:1036500000933C0100913C010D332CF00CE30093EE
:103660003C0107E0402E00913C01102F110F110B7F
:10367000212F312FEBE7F1E084A195A1A92FAA0F0B
:10368000AA0BBA2F48EE53E060E070E00E940E23D0
:10369000680179018C019D0148EE53E060E070E023
:1036A0000E940E23A801B90186019701041B150B86
:1036B000260B370BEBE7F1E0848D958DA92FAA0F30
:1036C000AA0BBA2FAC01BD010E945023E7E1F1E043
:1036D000038B148BA9CD813019F008E0402EA4CDC6
:1036E00000913C01862D90E00A96FC01ED50FE4FC2
:1036F00000839ACD0091F801013C09F04FC0813060
:1037000019F007E0402E90CD862D90E00A96FC013E
:10371000ED50FE4F008100933D0100913D010D33BE
:103720002CF00CE300933D0107E0402E00913D0199
:10373000102F110F110B212F312FEBE7F1E086A194
:1037400097A1A92FAA0FAA0BBA2F48EE53E060E069
:1037500070E00E940E23680179018C019D0148EE02
:1037600053E060E070E00E940E23A801B9018601D9
:103770009701041B150B260B370BEBE7F1E0868D49
:10378000978DA92FAA0FAA0BBA2FAC01BD010E94D9
:103790005023E7E1F1E0018F128F46CD813019F01F
:1037A00008E0402E41CD00913D01862D90E00A9623
:1037B000FC01ED50FE4F008337CD0091F801013C34
:1037C000C9F4813019F007E0402E2ECD862D90E00F
:1037D0000A96FC01ED50FE4F0081009326010091F6
:1037E00026010C330CF420CD0CE30093260107E0F6
:1037F000402E1ACD813019F008E0402E15CD0091F1
:103800002601862D90E00A96FC01ED50FE4F0083C4
:103810000BCD0091F801013CC9F4813019F007E0AB
:10382000402E02CD862D90E00A96FC01ED50FE4F11
:10383000008100932701009127010C330CF4F4CC94
:103840000CE30093270107E0402EEECC813019F005
:1038500008E0402EE9CC00912701862D90E00A96E1
:10386000FC01ED50FE4F0083DFCC0091F801013CDC
:10387000C9F4813019F007E0402ED6CC862D90E0B7
:103880000A96FC01ED50FE4F008100932801009143
:1038900028010C330CF4C8CC0CE30093280107E09A
:1038A000402EC2CC813019F008E0402EBDCC0091F2
:1038B0002801862D90E00A96FC01ED50FE4F008312
:1038C000B3CC0091F801013CC9F4813019F007E054
:1038D000402EAACC862D90E00A96FC01ED50FE4FBA
:1038E000008100932901009129010C330CF49CCC38
:1038F0000CE30093290107E0402E96CC813019F0AB
:1039000008E0402E91CC00912901862D90E00A9686
:10391000FC01ED50FE4F008387CC0091F801013C83
:1039200009F063C0813019F007E0402E7DCC862D70
:1039300090E00A96FC01ED50FE4F008100931901C2
:1039400000911901023018F000E000931901009174
:103950001901002309F068CC00911D01023081F5A6
:10396000D898C0980AE010E00E94EB02C19A0AE0E1
:1039700010E00E94EB02C29A0AE010E00E94EB0203
:1039800000911A01002311F4929801C0929A0AE062
:1039900010E00E94EB0200911701002311F49398AC
:1039A00001C0939A0AE010E00E94EB0200911C0112
:1039B000002309F039CCAB98AA98A398A29834CCEC
:1039C000C198C2980AE010E00E94EB02C09A0AE097
:1039D00010E00E94EB02D89A0AE010E00E94EB028D
:1039E00092989398AB98AA981FCC813019F008E070
:1039F000402E1ACC00911901862D90E00A96FC0108
:103A0000ED50FE4F008310CC0091F801013C09F00D
:103A100063C0813019F007E0402E06CC862D90E07F
:103A20000A96FC01ED50FE4F008100931D010091AC
:103A30001D01033018F001E000931D0100911901F0
:103A4000002309F0F1CB00911D01023081F5D898D7
:103A5000C0980AE010E00E94EB02C19A0AE010E070
:103A60000E94EB02C29A0AE010E00E94EB02009171
:103A70001A01002311F4929801C0929A0AE010E012
:103A80000E94EB0200911701002311F4939801C0EA
:103A9000939A0AE010E00E94EB0200911C010023BF
:103AA00009F0C2CBAB98AA98A398A298BDCBC198B5
:103AB000C2980AE010E00E94EB02C09A0AE010E00F
:103AC0000E94EB02D89A0AE010E00E94EB02929862
:103AD0009398AB98AA98A8CB813019F008E0402EB3
:103AE000A3CB00911D01862D90E00A96FC01ED50BC
:103AF000FE4F008399CB0091F801013CE9F481303D
:103B000019F007E0402E90CB862D90E00A96FC013C
:103B1000ED50FE4F0081003218F007E0402E84CBBC
:103B2000862D90E00A96FC01ED50FE4F0081009337
:103B30001E010E94E10478CB0091F801023C79F467
:103B4000813019F008E0402E6FCB00911E01862DC8
:103B500090E00A96FC01ED50FE4F008365CB4424B3
:103B6000439462CB0091F801013CE9F4813019F0F3
:103B700007E0402E59CB862D90E00A96FC01ED50CF
:103B8000FE4F0081003218F007E0402E4DCB862D0D
:103B900090E00A96FC01ED50FE4F008100931F015A
:103BA0000E94910441CB0091F801023C79F48130EC
:103BB00019F008E0402E38CB00911F01862D90E0CF
:103BC0000A96FC01ED50FE4F00832ECB4424439413
:103BD0002BCB0091F801013CE9F4813019F007E0AA
:103BE000402E22CB862D90E00A96FC01ED50FE4F30
:103BF0000081003218F007E0402E16CB862D90E0B1
:103C00000A96FC01ED50FE4F0081009320010E94B6
:103C1000E1040ACB0091F801023C79F4813019F0FB
:103C200008E0402E01CB00912001862D90E00A96FD
:103C3000FC01ED50FE4F0083F7CA44244394F4CABC
:103C40000091F801013CE9F4813019F007E0402EC1
:103C5000EBCA862D90E00A96FC01ED50FE4F0081E4
:103C6000003218F007E0402EDFCA862D90E00A9659
:103C7000FC01ED50FE4F0081009321010E94910450
:103C8000D3CA0091F801023C79F4813019F008E0C0
:103C9000402ECACA00912101862D90E00A96FC01AF
:103CA000ED50FE4F0083C0CA44244394BDCA009126
:103CB000F801013CE9F4813019F007E0402EB4CA64
:103CC000862D90E00A96FC01ED50FE4F00810032F7
:103CD00018F007E0402EA8CA862D90E00A96FC0155
:103CE000ED50FE4F0081009322010E9441049CCAC6
:103CF0000091F801023C79F4813019F008E0402E7F
:103D000093CA00912201862D90E00A96FC01ED50A5
:103D1000FE4F008389CA4424439486CA0091F80167
:103D2000013CE9F4813019F007E0402E7DCA862D70
:103D300090E00A96FC01ED50FE4F0081003218F031
:103D400007E0402E71CA862D90E00A96FC01ED50E6
:103D5000FE4F0081009323010E94910465CA0091E7
:103D6000F801023C79F4813019F008E0402E5CCA79
:103D700000912301862D90E00A96FC01ED50FE4F44
:103D8000008352CA442443944FCA0091F801013C75
:103D9000E9F4813019F007E0402E46CA862D90E004
:103DA0000A96FC01ED50FE4F0081003218F007E04A
:103DB000402E3ACA862D90E00A96FC01ED50FE4F47
:103DC0000081009324010E9441042ECA0091F80151
:103DD000023C79F4813019F008E0402E25CA0091A8
:103DE0002401862D90E00A96FC01ED50FE4F0083E1
:103DF0001BCA4424439418CA0091F801013CE9F419
:103E0000813019F007E0402E0FCA862D90E00A9607
:103E1000FC01ED50FE4F0081003218F007E0402E0B
:103E200003CA862D90E00A96FC01ED50FE4F0081FA
:103E3000009325010E949104F7C90091F801023C0A
:103E400079F4813019F008E0402EEEC90091250187
:103E5000862D90E00A96FC01ED50FE4F0083E4C9E8
:103E600044244394E1C900E5801600E0900611F473
:103E7000AA24A39402E5801600E0900611F402E063
:103E8000A02E00E6801600E0900609F4AA2402E6BF
:103E9000801600E0900611F403E0A02E0091F801D6
:103EA000013C09F040C0823019F007E0402EBCC947
:103EB000862D90E00A96FC01ED50FE4F208130E007
:103EC000862D90E00B96FC01ED50FE4F108100E036
:103ED000020F131F212F220F220B322F2A2D30E029
:103EE000220F331FF901E95EFE4F038B148B0A2D5D
:103EF00010E0000F111FF801E95EFE4F238934899D
:103F0000293803E1300708F48FC908E813E12A2DA6
:103F100030E0220F331FF901E95EFE4F038B148B53
:103F20004424439481C9823019F008E0402E7CC9B2
:103F30000A2D10E0000F111FF801E95EFE4F038902
:103F40001489862D90E00A96FC01ED50FE4F008307
:103F50000A2D10E0000F111FF801E95EFE4F0389E2
:103F60001489012F10E0862D90E00B96FC01ED5096
:103F7000FE4F008359C900914601862D90E00A96B4
:103F8000FC01ED50FE4F00834FC900914701862D83
:103F900090E00A96FC01ED50FE4F008345C9009168
:103FA0004801862D90E00A96FC01ED50FE4F0083FB
:103FB0003BC900914901862D90E00A96FC01ED5025
:103FC000FE4F008331C900914A01862D90E00A9688
:103FD000FC01ED50FE4F008327C9E7E1F1E004A9A1
:103FE00015A9862D90E00A96FC01ED50FE4F008346
:103FF000E7E1F1E004A915A9012F10E0862D90E07A
:104000000B96FC01ED50FE4F00830EC9E7E1F1E095
:1040100003AD14AD862D90E00A96FC01ED50FE4FE5
:104020000083E7E1F1E003AD14AD012F10E0862D30
:1040300090E00B96FC01ED50FE4F0083F5C8E4E5DF
:10404000F1E000811181862D90E00A96FC01ED508F
:10405000FE4F0083E4E5F1E000811181012F10E0C3
:10406000862D90E00B96FC01ED50FE4F0083DCC8DE
:10407000E6E5F1E000811181862D90E00A96FC01D1
:10408000ED50FE4F0083E6E5F1E000811181012F44
:1040900010E0862D90E00B96FC01ED50FE4F008362
:1040A000C3C8E8E5F1E000811181862D90E00A9611
:1040B000FC01ED50FE4F0083E8E5F1E00081118145
:1040C000012F10E0862D90E00B96FC01ED50FE4F85
:1040D0000083AAC8ECE5F1E000811181862D90E013
:1040E0000A96FC01ED50FE4F0083ECE5F1E0008103
:1040F0001181012F10E0862D90E00B96FC01ED5010
:10410000FE4F008391C8EAE5F1E000811181862D20
:1041100090E00A96FC01ED50FE4F0083EAE5F1E0E5
:1041200000811181012F10E0862D90E00B96FC019B
:10413000ED50FE4F008378C800915E01862D90E01F
:104140000A96FC01ED50FE4F00836EC800914D01B0
:10415000862D90E00A96FC01ED50FE4F008364C866
:1041600000914E01862D90E00A96FC01ED50FE4F25
:1041700000835AC800914F01862D90E00A96FC01F9
:10418000ED50FE4F008350C800915001862D90E005
:104190000A96FC01ED50FE4F008346C8142D940191
:1041A0000091F8010E9432150091F801013C89F557
:1041B00001E0401670F507E111E066240BC077249A
:1041C000F801E60DF71D20817724F301E955FD4F35
:1041D0002083639428E2621690F32CE300E011E060
:1041E0000E94671009EB10E066240BC07724F801E9
:1041F000E60DF71D20817724F301E955FD4F20835B
:1042000063942EE5621690F32EE500E010E00E9424
:104210006710E0E10C94DA238A938091FA018130EF
:1042200099F40091B30044E10E94B32200936F041B
:104230000091B30044E10E94B322442329F0EFE649
:10424000F4E000810395008300916F040093FA016C
:104250008093FB0129E08A9504E1809F002D109155
:10426000B300011708F05FC0E2E4F1E0402F50E036
:10427000440F551F440F551FE40FF51F45915491EE
:10428000319730E0F901ED50FE4F40832395E2E491
:10429000F1E0402F50E0440F551F440F551FE40F2D
:1042A000F51F459154913197452F50E030E0F901C9
:1042B000ED50FE4F40832395E4E4F1E0402F50E0C1
:1042C000440F551F440F551FE40FF51F149130E0A4
:1042D000F901ED50FE4F10832395E5E4F1E0402F06
:1042E00050E0440F551F440F551FE40FF51F149164
:1042F00030E0F901ED50FE4F1083239503952835EA
:1043000090F4E2E4F1E0402F50E0440F551F440FD9
:10431000551FE40FF51F4591549131974F3F1FEF03
:10432000510709F09CCF2D5F20935C0310E020E043
:1043300030E00091F8010E943215899108950E94A1
:104340001116002309F44EC004E010E00E94EB02B5
:1043500000915C03043128F403E010E00E94EB02BA
:104360000CC000915C03043140F000915C03083202
:1043700020F402E010E00E94EB0208E010E00E944E
:10438000EB020091F801003511F446DF26C00091E0
:10439000F801003621F00091F801003419F40E9470
:1043A00074161BC00091F801013C21F00091F80146
:1043B000023C19F40E94F71810C00091F801013D69
:1043C00021F00091F801023D41F40091F7011091B4
:1043D000E100011739F40E94BC1000E000935C0377
:1043E000009370040895002311F0949A089594980E
:1043F000089500E00AB900E00BB906E000BD0BE04B
:1044000009B900E000BD08E90AB900E0ECDF00E00E
:1044100000935C0300935B030093700400937104AA
:1044200000E010E0E2E7F4E0008311830895FA93DE
:10443000EA936A935A934A933A932A931A930A9364
:104440006FB75F9B73C00CB110917004123008F00D
:104450006DC00E34B1F410917004113061F41091FC
:104460005C03153020F410E010935C030AC012E0E6
:104470001093700406C010E010935C0311E01093D9
:104480007004E2E7F4E040815181542F40E0202F96
:1044900030E0240F351FE2E7F4E020833183E2E7C8
:1044A000F4E0208131812D351EE5310771F40EE5F0
:1044B00020915C0330E0F901ED50FE4F0083ECE504
:1044C000F3E000810395008324C0E2E7F4E020815B
:1044D00031812D341EE5310771F40EE420915C0327
:1044E00030E0F901ED50FE4F0083ECE5F3E0008190
:1044F000039500830EC00E3561F020915C0330E01F
:10450000F901ED50FE4F0083ECE5F3E000810395E7
:10451000008300E00093710400915C03043B30F0E1
:1045200000E000935C0300E0009370046FBF09910A
:10453000199129913991499159916991E991F9918B
:1045400018950FE90DBF00E00EBFC0E8D0E00E9453
:10455000F123002311F00E9401240E948A030E948B
:104560001B240C941B240024E8E0EA9532F0001F81
:10457000001C0416D0F3041AF8CF001F402D00953C
:104580000895002411240030010741F01695079585
:1045900010F4040E151E440F551FF5CF002D112DDC
:1045A000089500241124EFE0001F111F001C111CAE
:1045B0000416150610F0041A150AEA95AAF7001F4A
:1045C000111F402D512D009510950895519541953D
:1045D00050400895FF27552312F4F160F7DF1123AF
:1045E00012F4F09507D00E94D122F0FD03D0F1FD26
:1045F000EDCF0895119501951040089530952095BF
:10460000109501951F4F2F4F3F4F0895709560955E
:10461000509541955F4F6F4F7F4F089500241124AF
:1046200022243324E02FE12BE22BE32B71F036958B
:1046300027951795079520F4040E151E261E371E84
:10464000440F551F661F771FEDCF002D112D222D12
:10465000332D08950024112422243324E0E2EA9526
:1046600092F0001F111F221F331F001C111C221C5F
:10467000331C041615062606370688F3041A150A95
:10468000260A370AECCF001F111F221F331F402DAF
:10469000512D622D732D009510952095309508951C
:1046A000FF2777231AF4F1600E94062333231AF4BC
:1046B000F0950E94FE220E942A23F69510F40E9493
:1046C000FE22F69510F40C94062308955FD0702D09
:1046D0005DD0602D5BD0502D59D0402D57D0102C7F
:1046E00001FA54D0202C52D0302C0895F5DF041B51
:1046F00010E003C0EFDF041B150B20E030E005C025
:10470000E5DF041B150B260B370BE0F010FC1DC07A
:104710003DD0402D3BD0E00FF11F0417100540E0C5
:104720002407340778F446F4C895002D0024E22DC0
:10473000F32DE01BF0090994E00FF11F27D0202C86
:1047400025D0302CE22DF32D099411F4BEF7ECCFD7
:1047500031960EF0319650E060E070E017D0402DB9
:104760004B3F68F079F34F3F41F04E3F21F00ED0C0
:10477000702D0CD0602D0AD0502D08D0402D041B78
:10478000150B260B370B11F3E8F2E2CFC8953196E3
:104790000895FA92EA92DA92CA92BA92AA929A92F8
:1047A0008A927A926A925A924A92BA93AA939A9366
:1047B0008A930895FF84EE84DD84CC84BB84AA842C
:1047C000998488847F806E805D804C80BB81AA81C3
:1047D00099818881F0E00FB6F894CE0FDF1F0FBEED
:1047E000089501E0089520E002D0E9F708952D939F
:1047F00001501040202F212B08952591F8DFE9F773
:1048000008958CE398E4FC0105911491FC01329623
:10481000A591B491FC01349625913491422F432BFC
:1048200019F0F901EADF01C0DEDF069618E48834EA
:10483000910748F3089500008895FECFC603AE00A7
:1048400000000E00A000484847534D5F4C544531CE
:0648500039303231330063
:00000001FF
